:050000000214A180FEC6
:03000B000213FDE0
:0D0013000218E5302003020E7612134D2274
:10002300021668C2AF30DF04C2DFD21830D804C270
:06003300D8D217D2AF3253
:10003B0002002675E1C075E28075E9F875EAFFE408
:10004B00F580F590758921D28EC28F758CC1758A1A
:10005B0080C28DD28C7593807594A875B80275B4D7
:0B006B0012F5A875A901D2AFD2A9229E
:10007B000200030203C6E86480F8E933E833601139
:10008B000460F0ED33EC337009E8FCE9FDEAFEEBBC
:10009B00FF220460DED3EB9FEA9EE99DE8C2E78C6A
:1000AB00F0C2F795F0400CE8CCF8E9CDF9EACEFABE
:1000BB00EBCFFB12039185D0F05804700320D5B31E
:1000CB00E80470075002B2D50203D092D5EC04605D
:1000DB00F7E4CCC0E0C398F8603B94186008400D7F
:1000EB00D0E0FB0203A8E4FBFAC9FC8028E830E46B
:1000FB0006E4C9FBE4CAFCE830E305E4C9CACBFC5F
:10010B00E854076010F8C3E913F9EA13FAEB13FB91
:10011B00EC13FCD8F130F52FC3E49CFCEF9BFFEE06
:10012B009AFEED99FDD0E0FBEF4E4D4C701222DBA9
:10013B00030203CDEC2CFCEF33FFEE33FEED33FD6E
:10014B00ED30E7EB0203A8EF2BFFEE3AFEED39FDA6
:10015B00D0E0FB50130BBB00030203D0ED13FDEEFD
:10016B0013FEEF13FFEC13FC0203A8EC4D6011E838
:10017B00497017ED33EC3304600DE4FCFFFEFD22F8
:10018B00E933E8330470F80203C612039158046094
:10019B0009E4CC248150062850090203D0284003DF
:1001AB000203CDC0E0EB4A7044B98006D0E0FB02FD
:1001BB0003BCEF4E701CBD8008EBFFEAFEE9FD802F
:1001CB00EBE98DF0A4FEE5F002025FE9CDF9EAFE62
:1001DB00EBFFEF89F0A4FCE5F0CE89F0A42EFFE451
:1001EB0035F0CD89F0A42DFEE435F08067EF4E702D
:1001FB0005BD80D780C3EF8BF0A4ACF0EE8BF0A4E1
:10020B002CFCE435F0F8EF8AF0A42CE5F038FCE494
:10021B0033CB8DF0A42CFCE5F03BF8EE8AF0A42C4C
:10022B00FCE5F038F8E433CF89F0A42CFCE5F0388A
:10023B00CF3400CE89F0A42FFFE5F03EFEE433C9A6
:10024B008DF0A42EFEE5F039CD8AF0A42FFFE5F05A
:10025B003EFEE43DFD33D0E0FB50070BBB000F022D
:10026B0003D0EC2CFCEF33FFEE33FEED33FD02033A
:10027B00A80203D0EC5D046005E859047003020387
:10028B00C6120391580460F6EC4860F2EC7004FD62
:10029B00FEFF22C860DB2481C85009C3986002505E
:1002AB00060203CD9850CAF582E9294B4A7005AB7B
:1002BB00820203BC75F0007C1A7880C3EF9BEE9A28
:1002CB00ED99400DC3EF9BFFEE9AFEED99FDE842D1
:1002DB00F0DC23ACF0D0E0FFD0E0FED0E0FDAB8251
:1002EB0020E7101BEB60BAEC2CFCEF33FFEE33FE78
:1002FB00ED33FD0203A8E803F830E705C0F075F015
:10030B0000EF2FFFEE33FEED33FD40B830E7C28038
:10031B00AA75F020800E75F010800575F0087D0031
:10032B007E007F003392D530D503120529EC334084
:10033B0010EF33FFEE33FEED33FDEC33FCD5F0ED78
:10034B0022E5F0247EA2D513CC92E7CDCEFF22ED91
:10035B00D2E7CD33EC3392D524814006E4FFFEFD8A
:10036B00FC22FCE4CFCECDCC24E0501174FF80ED09
:10037B00C3CC13CCCD13CDCE13CECF13CF0470F093
:10038B0030D5DE020529E9D2E7C933E833F892D537
:10039B00EDD2E7CD33EC33FC5002B2D522EC30E793
:1003AB00100FBF000C0EBE00080DBD00040BEB6060
:1003BB0014A2D5EB13FCED92E7FD2274FFFCFDFEBE
:1003CB00FF22E480F8A2D574FF13FC7D80E480EF5C
:1003DB00E709F608DFFA8046E709F208DFFA803E04
:1003EB0088828C83E709F0A3DFFA8032E309F608F1
:1003FB00DFFA8078E309F208DFFA807088828C8359
:10040B00E309F0A3DFFA806489828A83E0A3F6080C
:10041B00DFFA805889828A83E0A3F208DFFA804CE6
:10042B0080D280FA80C680D4806980F280338010BD
:10043B0080A680EA809A80A880DA80E280CA803326
:10044B0089828A83ECFAE493A3C8C582C8CCC5839E
:10045B00CCF0A3C8C582C8CCC583CCDFE9DEE7806E
:10046B000D89828A83E493A3F608DFF9ECFAA9F0ED
:10047B00EDFB2289828A83ECFAE0A3C8C582C8CC43
:10048B00C583CCF0A3C8C582C8CCC583CCDFEADE5C
:10049B00E880DB89828A83E493A3F208DFF980CCBE
:1004AB0088F0EF60010E4E60C388F0ED2402B404B7
:1004BB000050B9F582EB2402B4040050AF2323455E
:1004CB00822390042B73BB010689828A83E022501E
:1004DB0002E722BBFE02E32289828A83E49322BBDA
:1004EB00010CE58229F582E5833AF583E02250067B
:1004FB00E92582F8E622BBFE06E92582F8E222E531
:10050B008229F582E5833AF583E49322BB010689C0
:10051B00828A83F0225002F722BBFE01F322C3E44E
:10052B009FFFE49EFEE49DFDE49CFC22E3F5F009B5
:10053B00E208B5F06BDFF58067E3F5F009E608B587
:10054B00F05EDFF5805A87F009E608B5F052DFF66A
:10055B00804E87F009E208B5F046DFF680428882CC
:10056B008C8387F009E0A3B5F036DFF68032888202
:10057B008C8387F009E493A3B5F025DFF580218800
:10058B00828C83E3F5F009E0A3B5F014DFF580105E
:10059B0088828C83E3F5F009E493A3B5F002DFF4D2
:1005AB00020666808780E9809080D4803E8015802B
:1005BB006E807E809D80B7808D80A38051807480FB
:1005CB003C02067289828A83ECFAE493F5F0A3C8A5
:1005DB00C582C8CCC583CCE493A3C8C582C8CCC59F
:1005EB0083CCB5F076DFE3DEE1807089828A83E429
:1005FB0093F5F0A3E208B5F062DFF4805E89828A9E
:10060B0083E0F5F0A3E608B5F051DFF5804D898264
:10061B008A83E0F5F0A3E208B5F040DFF5803C8972
:10062B00828A83E493F5F0A3E608B5F02EDFF4801D
:10063B002A8002805789828A83ECFAE493F5F0A32F
:10064B00C8C582C8CCC583CCE0A3C8C582C8CCC5FD
:10065B0083CCB5F006DFE4DEE280007FFFB5F0026D
:10066B000F2240027F012289828A83ECFAE0F5F0A7
:10067B00A3C8C582C8CCC583CCE0A3C8C582C8CCEF
:10068B00C583CCB5F0D5DFE5DEE380CF89828A83E5
:10069B00ECFAE0F5F0A3C8C582C8CCC583CCE493D3
:1006AB00A3C8C582C8CCC583CCB5F0AFDFE4DEE20E
:1006BB0080A988F0EF60010E4E60ABED2402B4040C
:1006CB00005098F582EB2402B40400508E2323458E
:1006DB0082239005AE73EF4E6012EF60010EEDBBFF
:1006EB00010B89828A83F0A3DFFCDEFA2289F050AA
:1006FB0007F709DFFCA9F022BBFEFCF309DFFCA91D
:10070B00F022C2AFE4F5B174FF900000F0A3F090BB
:10071B000001E024FFF0900000E034FFF0E07002F5
:10072B00A3E070EB74FF900000F0A3F0900001E0E9
:10073B0024FFF0900000E034FFF0E07002A3E070C3
:10074B00EB74FF900000F0A3F0900001E024FFF0A9
:10075B00900000E034FFF0E07002A3E070EB74FF58
:10076B00900000F0A3F0900001E024FFF090000057
:10077B00E034FFF0E07002A3E070EB12003EE4F512
:10078B001CC21FD220D2211216B81215ADC21EE404
:10079B009000F2F0A3F09000F0F0A3F09000E804CA
:1007AB00F0A374F4F0D2AFE4F5B1D39000F3E0947E
:1007BB00589000F2E094024008C2AFE4F0A3F0803E
:1007CB00FED39000F1E094589000F0E094024008C2
:1007DB00C2AFE4F0A3F080FE301E0B120B1512100B
:1007EB005912001680C19000E8E07002A3E070B7C8
:1007FB009000847410F0C2ACC299C298E4F50890D2
:10080B000084E0FFE508C39F500EE5089018EE93B7
:10081B00FF1218BB050880E7D2ACC222C224E490B9
:10082B000085F0C223F5B19000E804F0A374F4F056
:10083B0020240F9000E8E07002A3E060051210592D
:10084B0080EE202403020940C22474FF9000E8F0DC
:10085B00A3F0E4F508900084E02404FFE433FEC326
:10086B00E5089FEE6480F874809850147486250810
:10087B00F582E43400F583E064686004050880D5F4
:10088B0074862508F9E43400FA7B017D121218589E
:10089B008F0974982508F582E43400F583E0650927
:1008AB006003020AE4748E2508F582E43400F583B4
:1008BB00E064816003020AE49000E8F0A37464F042
:1008CB00D286D2879000E8E07002A3E070F6900029
:1008DB00E8E4F0A37464F0C286C2879000E8E0708D
:1008EB0002A3E070F69000E8E4F0A37464F0D28603
:1008FB00D2879000E8E07002A3E070F69000E8E485
:10090B00F0A37464F0C286C2879000E8E07002A383
:10091B00E070F6D21EE49000F2F0A3F09000F0F03D
:10092B00A3F074FF9000E8F0A3F074922508F9E4AB
:10093B003400020A82900084740EF0C2ACC299C2D9
:10094B0098E4F508900084E0FFE508C39F500EE59E
:10095B00089018FE93FF1218BB050880E7D2ACC2B3
:10096B0022C224E4900085F0C223F5B19000E80484
:10097B00F0A374F4F020240F9000E8E07002A3E0E1
:10098B00600512105980EE202403020AF9C2247468
:10099B00FF9000E8F0A3F0E4F508900084E0240455
:1009AB00FFE433FEC3E5089FEE6480F87480985033
:1009BB001474862508F582E43400F583E0646860DE
:1009CB0004050880D574862508F9E43400FA7B0108
:1009DB007D101218588F0974962508F582E434009F
:1009EB00F583E065096003020AE4748E2508F5823D
:1009FB00E43400F583E064936003020AE49000E8BA
:100A0B00F0A37464F0D286D2879000E8E07002A362
:100A1B00E070F69000E8E4F0A37464F0C286C2873D
:100A2B009000E8E07002A3E070F69000E8E4F0A319
:100A3B007464F0D286D2879000E8E07002A3E07075
:100A4B00F69000E8E4F0A37464F0C286C2879000CD
:100A5B00E8E07002A3E070F6D21EE49000F2F0A37F
:100A6B00F09000F0F0A3F074FF9000E8F0A3F074A6
:100A7B00902508F9E43400FA7B0178EA7C007D01CB
:100A8B007E007F061204AB9000EAE024CD9000E2DA
:100A9B00F09000EBE024CD9000E3F09000ECE0242C
:100AAB00CD9000E4F09000EDE024CD9000E5F090C7
:100ABB0000EEE024CD9000E6F09000EFE024CD9026
:100ACB0000E7F078EA7C007D017B017A0079E27E19
:100ADB00007F061204AB0207B2C224E4900085F03B
:100AEB00C2239000E804F0A374F4F00207B2900064
:100AFB00E87401F0A374F4F0051CE51CD3940240D8
:100B0B0003E4F51C1215AD0207B2E5D9139286A2C8
:100B1B00DB72DA9287300974C209900081E030E70A
:100B2B002EE4F50A7463250AF582E43400F583E0BC
:100B3B00FF900006E02407F582E43400F583EFF024
:100B4B00900006E004F0050AE50AB41DD7803DE4E9
:100B5B00F50A7463250AF582E43400F583E0FF900F
:100B6B000006E02407F582E43400F583EFF09000F3
:100B7B0006E004F0050AE50AB41DD7900080E0906A
:100B8B000084F0E4900006F0D21BD222200A03026C
:100B9B000D33C20A201D03020D31900084E0D39463
:100BAB003A503E7E007F1F7D007B017A00796312F5
:100BBB0006E1E4F50A900085E02486F582E4340032
:100BCB00F583E0FF7463250AF582E43400F583EFC7
:100BDB00F0900085E004F0050AE50AB41DD7020C7D
:100BEB0078900084E0D394574003020C87A3E0C3B2
:100BFB00943A503E7E007F1F7D007B017A00796323
:100C0B001206E1E4F50A900085E02486F582E434CF
:100C1B0000F583E0FF7463250AF582E43400F58365
:100C2B00EFF0900085E004F0050AE50AB41DD70249
:100C3B000CCB7E007F1F7D007B017A00796312064F
:100C4B00E1E4F50A900085E02486F582E43400F5B2
:100C5B0083E0FF7463250AF582E43400F583EFF03B
:100C6B00900085E004F0050AE50AB41DD7900084D6
:100C7B00E0900080F0A3E0547F020D29900085E006
:100C8B00C3943A504F7E007F1F7D007B017A007921
:100C9B00631206E1E4F50A900085E02486F582E410
:100CAB003400F583E0FF7463250AF582E43400F524
:100CBB0083EFF0900085E004F0050AE50AB41DD738
:100CCB00900084E0900080F0A3E04480F012187A4A
:100CDB00D21D80547E007F1F7D007B017A007963DB
:100CEB001206E1E4F50A900085E02486F582E434EF
:100CFB0000F583E0FF7463250AF582E43400F58385
:100D0B00EFF0900085E004F0050AE50AB41DD790DA
:100D1B000084E0900080F0A3E0547FF04440F01298
:100D2B00187AC21D8002D21C302511C2257E007F8D
:100D3B005D7D007B017A0079061206E12024030217
:100D4B000E75E49000F0F0A3F0F50A900084E02417
:100D5B0004FFE433FEC3E50A9FEE6480F8748098C9
:100D6B0050147486250AF582E43400F583E0646838
:100D7B006004050A80D57487250AF9E43400A801BC
:100D8B00FC7D017B017A0079E27E007F061206BDB5
:100D9B00EF6034900084E0D3940A402B7487250ACB
:100DAB00F9E43400FA7B0178E27C007D017E007F60
:100DBB00061204AB78EA7C007D017B017A0079E2B4
:100DCB007E007F061204AB900084E0D3941D504D3F
:100DDB007E007F1F7D007B017A0079631206E1E4C0
:100DEB00F50A900084E0FFE50AC39F501E74862528
:100DFB000AF582E43400F583E0FE7463250AF5827C
:100E0B00E43400F583EEF0050A80D7900080EFF014
:100E1B00A3E0547FF012187AC224C21D227E007FF9
:100E2B001F7D007B017A0079631206E1E4F50A74F9
:100E3B0086250AF582E43400F583E0FF7463250A06
:100E4B00F582E43400F583EFF0900085E004F005C3
:100E5B000AE50AB41DD9900084E0900080F0A3E06D
:100E6B004480F012187AC224D21D22E4F50BF50C43
:100E7B00F50DF50EF50FF510200E03020F66201180
:100E8B0049301812C218C20DD211C28B438804C24A
:100E9B0013D2AA021032E5D930E003021032C2118C
:100EAB001218D512180820D803301704C2D8C2174D
:100EBB0043D90120D803301704C2D8C217900004BD
:100ECB007401F0A374C2F0021032301315C213D2A6
:100EDB0008121792E4F5161217D0900082EFF01259
:100EEB0018D530181AC218E516C39408500302100F
:100EFB0032900004E4F0A37450F0C20E021032E5FD
:100F0B00D930E003021032200D03021032E4F50A4F
:100F1B00850ADA75F004E516A4250AF582E435F0A6
:100F2B00F583E5822463F582E5833400F583E0F5F0
:100F3B00DB050AE50AB404D8051620D803301704DC
:100F4B00C2D8C21743D90120D803301704C2D8C264
:100F5B0017C20DD20F121792021032900002E070DE
:100F6B0002A3E0703AC209301504D2098019E518C2
:100F7B00C394204012900082E0F50D1217D08F0E13
:100F8B00E50DB50E02D209E4F518C215C210C21256
:100F9B00C2111218D5C21674FF900002F0A3F030E4
:100FAB00173520152E201107121830D2158024E585
:100FBB0018C39420501DE4F50A850ADA74632518CA
:100FCB00F582E43400F583E5DBF00518050AE50A44
:100FDB00B404E6C217803220121F30D91CD2122063
:100FEB001627D2169000027401F0A374AEF0C2154E
:100FFB00C211E4F518C210801020100D30DA0A204F
:10100B001107D2101211CA8F1720D91130120EC22C
:10101B0012201109D20CE4900000F0A3F030140759
:10102B00C214D2111218D5900004E07002A3E07024
:10103B001C74FF900004F0A3F0E4F516C211C21368
:10104B001218D5C20DC20EC20FC208D20A22C22676
:10105B002023030211449000E0E07002A3E060340F
:10106B003098F3E599A2D0309A01B34021900085D6
:10107B00E02486F582E43400F583E599F090008551
:10108B00E004F09000E0E4F0A37414F08002D226A8
:10109B00C29880C2302603021124D224900085E02E
:1010AB00900084F0E4A3F0F50A900084E0FF2404A0
:1010BB00FDE433FCE50AC39DEC6480F87480985022
:1010CB00147486250AF582E43400F583E0646860C5
:1010DB0004050A80D4748F250AF582E43400F58365
:1010EB00E0F50B240CFDE433FCD3ED9F7480F86C1E
:1010FB009850267486250AF9E43400FA7B01E50B37
:10110B00240AFD121858E50A250B2490F582E434C5
:10111B0000F583E06F60138000C2247E007F5E7D4C
:10112B00007B017A0079841206E1C226C22374FF88
:10113B009000E0F0A3F0D2AC222022030211C9C22E
:10114B00ACC299C298E4F50A900084E02404FFE451
:10115B0033FEC3E50A9FEE6480F8748098501474D4
:10116B0007250AF582E43400F583E0646860040522
:10117B000A80D57408250AF9E43400A801FC7D0126
:10118B007B017A0079E27E007F061206BDEF7028A4
:10119B00F50A900084E0FFE50AC39F5014740725FD
:1011AB000AF582E43400F583E0FF1218BB050A80D0
:1011BB00E1E49000F2F0A3F0D225C222D2AC22E4FB
:1011CB00F511F512F513FFFEF514F51575938075F2
:1011DB0094A8439301E59320E0FB75DC1185DD14A6
:1011EB0075DC1085DD15AC97E41203267B337A335F
:1011FB0079D3783F120176C004C005C006C007AC96
:10120B0014E4120326A804A905AA06AB07D007D03D
:10121B0006D005D004120081E4FBFA793C78421227
:10122B000176C004C005C006C007C3E5159514FDC3
:10123B00E49400FCE4120321A804A905AA06AB0759
:10124B00D007D006D005D00412027FE4FBFA797CDC
:10125B00784212008512035AEF2513F513EE35125F
:10126B00F5125393BF0511E511640860030211DDFC
:10127B0053937FE513AE127803CEC313CE13D8F975
:10128B00FFC374FF9FFF22300C13C3900001E09447
:10129B000A900000E094004004C20CD214300813F2
:1012AB00C3900001E09519900000E094004004C247
:1012BB0008D20D300F13C3900001E0951990000078
:1012CB00E094004004C20FD20D900004E0FEA3E0B6
:1012DB00FF4E6013EFF47002EEF4600BE024FFF0AE
:1012EB00900004E034FFF0900002E0FEA3E0FF4E1C
:1012FB006013EFF47002EEF4600BE024FFF090004B
:10130B0002E034FFF0900061E0FEA3E0FF4E6013BB
:10131B00EFF47002EEF4600BE024FFF0900061E05C
:10132B0034FFF09000E0E0FEA3E0FF4E6013EFF41B
:10133B007002EEF4600BE024FFF09000E0E034FF6D
:10134B00F022300E3FE5D920E0282018251218088E
:10135B0020D803301704C2D8C21743D90120D803B1
:10136B00301704C2D8C217900004E4F0A3745AF0EB
:10137B008054301851C218C20E900004E4F0A374CC
:10138B000AF08042301715C217121830D209C21258
:10139B00C21074FF900002F0A3F0802020121030D6
:1013AB00D90DD212900002E4F0A37450F0800D20FE
:1013BB00100A30DA07D2101211CA8F1720D902C2C5
:1013CB001220DA02C210900002E07002A3E0700B50
:1013DB001216B874FF900002F0A3F0900004E070B6
:1013EB0002A3E0700CD20AC20E74FF900004F0A3AB
:1013FB00F022C0E0C0F0C083C082C0D075D000C066
:10140B0000C001C002C003C004C005C006C007C2B3
:10141B00AF758A80758CC1900001E004F070069066
:10142B000000E004F01212929000E8E0FEA3E0FF4F
:10143B004E6013EFF47002EEF4600BE024FFF090BB
:10144B0000E8E034FFF0051BE51B7002051AC3949E
:10145B00E8E51A94034022751A00751B009000F3FF
:10146B00E004F070069000F2E004F09000F1E0046C
:10147B00F070069000F0E004F0D2AFD007D006D0A9
:10148B0005D004D003D002D001D000D0D0D082D070
:10149B0083D0F0D0E032787FE4F6D8FD758124025A
:1014AB0014E802070DE493A3F8E493A34003F6803A
:1014BB0001F208DFF48029E493A3F85407240CC845
:1014CB00C333C4540F4420C8834004F456800146F0
:1014DB00F6DFE4800B010204081020408090152DEC
:1014EB00E47E019360BCA3FF543F30E509541FFE1B
:1014FB00E493A360010ECF54C025E060A840B8E48C
:10150B0093A3FAE493A3F8E493A3C8C582C8CAC50E
:10151B0083CAF0A3C8C582C8CAC583CADFE9DEE7A0
:10152B0080BE011C00C11FC1A0C1A14600E200008A
:10153B00000000004600EA000000000000C11E424F
:10154B0000E8FFFF4200F200004200F00000C12261
:10155B00C123C125C1244200000000C10EC109C135
:10156B000A011700C117C118C113C112C110C11153
:10157B00C115C116011800011600C108C10FC10C1D
:10158B00C10BC10DC114011900420004FFFF420041
:10159B0002FFFF021A0000C11AC119C11DC11BC1F4
:1015AB001C00D2CDD2CC53870FE51C70028026E5F0
:1015BB001CB4010E75CDFF75CC9875CBFF75CA9811
:1015CB00801FE51CB4020E75CDFF75CCCC75CBFF1F
:1015DB0075CACC800C75CDFF75CC3075CBFF75CA39
:1015EB0030D2CAE4F59BF59AD29FD29EC29DD29C73
:1015FB00D2ACC298C299FE7F5EFD7B017A007984E2
:10160B001206E174FF9000E0F0A3F02275DFA54312
:10161B00D90475D9E8E4FDFF12189F7D1F7F0112D5
:10162B00189F301F047D4380027D417F0212189F5B
:10163B0012189B7D5C7F0412189F7D807F0512180A
:10164B009FE4FD7F0612189F7D107F0712189F7D68
:10165B000A7F0812189FE4F5B275DF5A22C0E0C06A
:10166B0083C082C0D0C2AFC2AC309836202331E5E4
:10167B0099A2D0309A01B34025900085E4F0E02484
:10168B0086F582E43400F583E599F0900085E0045B
:10169B00F09000E0E4F0A37414F0D2238002D2ACFB
:1016AB00C298D2AFD0D0D082D083D0E0327E007F30
:1016BB005D7D007B017A0079061206E174FF9000D4
:1016CB0061F0A3F0C20EC218C217C20AC209C2123D
:1016DB00C210C213C20DC208C20FC215E4F518C264
:1016EB0011F516C21674FF900004F0A3F0900002DF
:1016FB00F0A3F01218D52275DFA543D90475D9E8EC
:10170B007D80E4FF12189F7D1F7F0112189F301FF1
:10171B00047D4380027D417F0212189F12189B7D2E
:10172B005C7F0412189F7D067F0E12189F7D907FA1
:10173B000C12189F7DB07F0D12189F75DF5A227502
:10174B00DFA543D90475D9887DC0E4FF12189F7DAE
:10175B00047F0112189F301F047D4380027D417F5F
:10176B000212189F12189B7D5C7F0412189F7D0636
:10177B007F0E12189F7D907F0C12189F7DB07F0DEE
:10178B0012189F75DF5A22E4900000F0A3F030216D
:10179B001A30080A758AC0758CE075191222300F41
:1017AB0023758A80758CC175190A2230080A758ACF
:1017BB0080758CF375190F22300F09758A40758C63
:1017CB00ED751909227B017A0079637F1F8B118AD2
:1017DB00128913E4FEEFD3941F40027F1FE4FDED4B
:1017EB00C39F5016AB110513E513AA127002051215
:1017FB0014F91204D12EFE0D80E5AF06227B017A7F
:10180B000079638B118A128913E4FF8FDAAB110510
:10181B0013E513AA127002051214F91204D1F5DBA9
:10182B000FBF1FE7227B017A0079638B118A128924
:10183B0013E4FF8FDAAB110513E513AA127002053F
:10184B001214F9E5DB1205170FBF1FE7228B0C8A69
:10185B000D890EE4FFFEEEC39D5013AB0CAA0DA930
:10186B000E8E827583001204EA2FFF0E80E8222071
:10187B00D808E5D920E00330DF06C2D8C2DFC32287
:10188B00D20E74FF900004F0A3F0C218C20AD32248
:10189B007D5C7F038FDCE5DCB40112ED75F00B840E
:1018AB00C4333354C0F5DDED25DDF5DD228DDD22AE
:1018BB0074FFFDFCEFA2D0929BF599209909ED1DC9
:1018CB0070011CED4C70F4C29922302009301103C9
:1018DB0002174A02161712170222C2AFC2AAD2135C
:1018EB00D2AF32FEFE689999999999996801026570
:1018FB00F3C116FEFE68AAAAAAAAAAAA681300DF59
:01190B0016C5
:00000001FF
