:020000040800F2
:10000000000400206701000875010008770100085E
:10001000790100087B0100087D0100080000000054
:100020000000000000000000000000007F01000848
:10003000810100080000000083010008850100081C
:100040008701000887010008870100088701000870
:100050008701000887010008870100088701000860
:100060008701000887010008870100088701000850
:100070008701000887010008870100088701000840
:100080008701000887010008870100088701000830
:100090008701000887010008870100088701000820
:1000A0008701000887010008870100088701000810
:1000B000251B000887010008870100088701000848
:1000C00087010008870100088701000887010008F0
:1000D00087010008870100088701000887010008E0
:1000E00087010008870100088701000887010008D0
:1000F00087010008870100088701000887010008C0
:1001000087010008870100088701000887010008AF
:10011000870100088701000887010008870100089F
:10012000870100088701000887010008870100088F
:10013000DFF80CD002F036FC00480047B51A000882
:10014000B8160020EFF30980704780F309887047E4
:10015000EFF30880704780F30888704740BA704713
:10016000C0BA7047704708488047084981F308883B
:1001700007480047FEE7FEE7FEE7FEE7FEE7FEE78B
:10018000FEE7FEE7FEE7FEE765010008B81600207F
:10019000310100082D48016841F00101016041680A
:1001A0002B4A1140416001682A4A114001600168F0
:1001B00021F480210160416821F4FE0141600021A9
:1001C0008160AFF30080214900200A6842F4803248
:1001D0000A604FF4A0630A6800F1010012F4003FC6
:1001E00001D19842F7D1086880032DD51A480268DA
:1001F00042F010020260026822F00302026002680C
:1002000002604868486048684860486848604868D4
:1002100020F47C104860486840F47020486008680A
:1002200040F08070086008688001FCD5486820F0C4
:1002300003004860486840F0020048604868C0F326
:1002400081000228FAD17047FEE70000001002404A
:100250000000FFF8FFFFF6FE00200240A3480168FF
:1002600041F0010101604168A14A1140416001680B
:10027000A04A11400160016821F4802101604168B9
:1002800021F4FE01416000218160704797490A68AE
:1002900022F480320A600A6822F480220A60B0F5F3
:1002A000803F07D0B0F5802F03D1086840F4A0202C
:1002B00008607047086840F48030F9E70346002082
:1002C00059098A4A012901D1116804E0022901D1A2
:1002D000116A00E0516A03F01F02012393400B42B0
:1002E00000D00120704730B500244FF4A0653120C4
:1002F000FFF7E4FF641C08B9AC42F8D13120FFF7E6
:10030000DDFF002800D0012030BD784A116821F0BF
:10031000F80141EAC00010607047774908607047F3
:10032000724B5A68084322F47C121043586070479D
:100330007149086670476D4A516821F00301014315
:10034000516070476948406800F00C007047674A88
:10035000516821F0F001014351607047634A5168D0
:1003600021F4E061014351607047604A516821F413
:10037000605141EAC000506070475C4A0029517AE0
:1003800001D0014300E08143517270475A49D8318E
:1003900008607047554A516821F44041014351605B
:1003A00070475249002220310A7001F820290128A3
:1003B00002D0042802D1052081F8200070474F495F
:1003C00008607047494A116A0143116270474B49FE
:1003D00044390860704710B5444A5168484B11F0E1
:1003E0000C0103D0042901D0082901D0036011E0D9
:1003F0005168022301F4701103EB9141536813F427
:10040000803F02D053689B0301D53E4B00E03C4B3C
:100410005943016051683C4B01F0F00109095C5CF3
:100420000168E1404160546804F4E064240A1C5D02
:1004300021FA04F48460546804F46054E40A1B5DF7
:10044000D940C1605268304B02F44042920B1B1FEE
:100450009A5CB1FBF2F1016110BD244A0029516997
:1004600001D0014300E08143516170471F4A0029D8
:10047000916901D0014300E08143916170471B4ABB
:100480000029D16901D0014300E08143D161704767
:10049000164A0029D16801D0014300E08143D160B0
:1004A0007047124A0029116901D0014300E08143DD
:1004B0001161704711494039086070470E49C8649E
:1004C00070470A49C87170470848416A41F0807115
:1004D000416270470549024689680020114200D0F8
:1004E00001207047014988727047000000100240E7
:1004F0000000FFF8FFFFF6FE000042428004424287
:1005000000127A0000093D0004000020994910B54E
:10051000401810D0B0F5806F10D0B0F5784F18D1DA
:1005200001210C032046FFF7B3FF2046BDE8104031
:100530000021FFF7ADBF01218C0301E00121CC03B5
:100540002046FFF7AEFF2046BDE810400021FFF730
:10055000A8BF10BD30B502884C8802F441530A8808
:10056000CD8822438C882C4322430C8922434C891A
:1005700022438C892243CC8922431A430280828BF6
:1005800022F400628283098A018230BDF0B50546FB
:100590000C4602200021AA8B85B001264FF24003B1
:1005A0001A40AA832884AF8B2289022A24D0A088EB
:1005B00000B102266846FFF70EFFE088B0F5007F25
:1005C00006D10098218900EB80004000090206E076
:1005D000208971014143009800EB80004000B0FB8E
:1005E000F1F0401D80B20A21B0FBF1F000F00101F2
:1005F000401AC0F34F000902821EFE2A01D30220D6
:100600000021E288084302432A84208861886289A5
:100610000843A18811430843384340F40060A8838D
:1006200005B0F0BD0021018041808180C180018141
:1006300041818181C18107210182704700210180B0
:1006400041808180C180022202814181704700295E
:10065000018802D041F0400101E021F04001018019
:1006600070470029818B02D041F4806101E021F4C0
:10067000806181837047090901238B40002A8288A9
:1006800099B201D00A4300E08A4382807047002A71
:10069000828801D00A4300E08A43828070478181CA
:1006A000704780897047A1F57E420188FF3A02D0E9
:1006B00041F4807101E021F48071018070470029CC
:1006C000818802D041F0040101E021F00401818021
:1006D0007047028822F40062028002880A43028086
:1006E0007047018841F480510180704700290188DA
:1006F00002D041F4005101E021F400510180704723
:10070000012901D0008B7047808A7047008A7047AA
:10071000B1F5804F018802D141F4804101E021F41C
:100720008041018070470246128900200A4200D0B1
:1007300001207047C9430181704710B501F00F03D4
:10074000012404FA03F30246002009098C40918831
:100750009BB2A4B2128921401A4202D0002900D0D3
:10076000012010BD01F00F0201219140C943018118
:100770007047000000C8FFBFF24A116801F038015D
:10078000014311607047EF490A6822F008020A60CD
:100790000A6802430A607047EA490A6822F01002B8
:1007A0000A600A6802430A607047E648E649416009
:1007B000E64941607047E348016941F08001016109
:1007C0007047E0490420CA68D20701D00120704771
:1007D000CA68520701D502207047C968C906FBD50F
:1007E0000320704700B50346FFF7EBFF05E0FF204D
:1007F000401EFDD1FFF7E5FF5B1E012802D1002B53
:10080000F5D101E0002B00D1052000BD70B50546F3
:1008100040F6FF763046FFF7E5FF042813D1C94CB8
:10082000206940F0020020616561206940F04000CD
:1008300020613046FFF7D6FF012804D0216941F638
:10084000FD721140216170BD30B540F6FF7528463C
:10085000FFF7C8FF042812D1BA4C206940F0040009
:100860002061206940F0400020612846FFF7BAFF70
:10087000012804D0216941F6FB721140216130BD8D
:1008800030B540F6FF752846FFF7ACFF042827D1A6
:10089000AC4CAD48A060AD48A060206940F020009D
:1008A0002061206940F0400020612846FFF79AFF50
:1008B00041F6EF7504280ED1206941F6DF7108403A
:1008C0002061206940F010002061A149A520088026
:1008D0000F20FFF787FF012802D0216929402161FD
:1008E00030BDF0B505460E460F20FFF77BFF04280C
:1008F00016D1944C206940F0010020612E800F2019
:10090000FFF770FF41F6FE77042804D1300C6880B1
:100910000F20FFF767FF012802D0216939402161CC
:10092000F0BD70B504460D460F20FFF75BFF0428AD
:100930000FD1844E306940F00100306125800F20D6
:10094000FFF750FF012804D0316941F6FE721140D3
:10095000316170BD70B505460E460F20FFF742FFAE
:10096000042813D1774C7848A0607848A0602069AB
:1009700040F0100020612E800F20FFF733FF012888
:1009800004D0216941F6EF721140216170BD2DE95B
:10099000F041C043C4B2C0F30725C0F30746070EB9
:1009A0000F20FFF71FFF04283AD1DFF89881664A2D
:1009B000C8F80820654AC8F80820D8F8102042F086
:1009C0001002C8F81020DFF88CC1FF2C06D0ACF85C
:1009D00008480F20FFF706FF042818D1FF2D06D086
:1009E000ACF80A580F20FFF7FDFE04280FD1FF2EA8
:1009F00006D0ACF80C680F20FFF7F4FE042806D1EF
:100A0000FF2F06D0ACF80E780F20FFF7EBFE012881
:100A100006D0D8F8101041F6EF731940C8F810103E
:100A2000BDE8F08170B5064640F6FF752846FFF731
:100A3000D9FE04282BD1434C4348A0604348A06012
:100A4000206940F020002061206940F040002061D2
:100A50002846FFF7C7FE41F6DF71042818D1206948
:100A600008402061206940F01000206139480EB133
:100A7000002100E0A521A0F800182846FFF7B2FEEB
:100A8000012804D0216941F6EF721140216170BD47
:100A90000128FCD022690A40226170BDF0B50546EC
:100AA000284C29480E461746A0602848A0600F2011
:100AB000FFF798FE042814D1206940F0100020614F
:100AC00035433D43224945F0F800891C08800F203A
:100AD000FFF788FE012804D0216941F6EF7211402A
:100AE0002161F0BD1748C069800870471548006A49
:100AF000704714490020C969890700D50120704753
:100B0000104900200968890600D5012070470D4A68
:100B10000029116901D0014300E081431161704750
:100B200001460020074A012904D1D169C90700D034
:100B300001207047D2680A42FAD170470149C86063
:100B4000704700000020024023016745AB89EFCDCC
:100B500000F8FF1F00F0FF1F894A10B5811A131516
:100B6000D41490422ED00DDC864940181CD09842F7
:100B700021D0A0423BD101211020FFF789FC0021A8
:100B800010200DE0994224D0A14229D0B1F5406F48
:100B90002DD101210C022046FFF77AFC00212046CE
:100BA000BDE81040FFF774BC01210420FFF770FC82
:100BB00000210420F4E701210820FFF769FC00214F
:100BC0000820EDE701212020FFF762FC0021202012
:100BD000E6E701214020FFF75BFC00214020DFE732
:100BE00001218020FFF754FC00218020D8E710BDB0
:100BF00010B501210846FFF74BFC0021BDE810406D
:100C00000120FFF745BCF0B5CC78002204F00F03BB
:100C1000E40601D58C7823430C884FF00F0C14F0B8
:100C2000FF0F4FF0010E1AD006680D880EFA02F47D
:100C30002540A5420FD195000CFA05F726EA0707D3
:100C400003FA05F6CD783E43282D01D1446102E038
:100C5000482D00D10461521C082AE6D306600A8898
:100C6000FF2A1DD94668002202F108050EFA05F494
:100C70000D882540A5420FD195000CFA05F726EA0C
:100C8000070703FA05F6CD783E43282D00D14461CD
:100C9000CD78482D00D10461521C082AE4D3466067
:100CA000F0BD4FF6FF710180022181700421C170F7
:100CB00070470246926800200A4200D00120704727
:100CC000806880B270470246D26800200A4200D095
:100CD00001207047C06880B2704701617047416170
:100CE00070470AB10161704741617047C160704748
:100CF00041F48032826181618261816980697047DB
:100D000010B5214B1A684FF68074224042EA001059
:100D10000843186010BD1D49C8617047F0B51A4DF1
:100D20006B68440D260184B2C0F30157B440C0F390
:100D30000342032F06D1686823F0706220F07060D0
:100D4000686008E0C00203D503209040834300E0C0
:100D5000A34343F0706201B122436A60F0BD10B555
:100D60008A0721F003040849120F21440F238C68DD
:100D700093409C438C608B68904003438B6010BD14
:100D80000014014000F8FEBF0000014000002042B6
:100D90002849084328490860704770B50F24C27875
:100DA00001784FF0E0230126E2B1D3F80C2D19446D
:100DB00002F4E062C2F5E062120AC2F10405D44016
:100DC0004278AA408578254015432A0181F80024FD
:100DD000007800F01F018E40400903EB8000C0F84E
:100DE000006170BD01F01F008640480903EB8000E0
:100DF000C0F8806170BD114A114001430E48001FC8
:100E0000016070474FF0E0220029D2F8101D01D098
:100E1000014300E08143C2F8101D70474FF0E0210C
:100E20000428086902D140F0040001E020F0040029
:100E3000086170470000FA050CED00E080FFFF1F1D
:100E4000B24A10B5811A131590421BD007DCB04985
:100E5000401814D0984223D101218C0417E0994204
:100E600013D0B1F56C4F1BD101218C032046FFF745
:100E70000FFB2046BDE810400021FFF709BB012110
:100E80004C0404E00121CC0401E001210C052046C2
:100E9000FFF707FB2046BDE810400021FFF701BB2C
:100EA00010BD30B50446008A85B00D464CF6FF7182
:100EB0000840E98801432182A0894EF6F3110840D9
:100EC000A9882A8911436A8902431143A181A18A11
:100ED0004FF6FF400140A8890843A0826846FFF70B
:100EE0007AFA8C48844201D1039800E00298642287
:100EF00000EBC00101EB001029686FF018058900B4
:100F0000B0FBF1F0B0FBF2F109010B096B4300EB10
:100F10008300322303EB0010B0FBF2F000F00F006F
:100F20000843208105B030BD4FF416510160002107
:100F30008180C18001810C2242818181704710B57E
:100F4000028A4FF2FF031A400B884C8823438C8897
:100F5000C9880C4323431343038210BD0021018041
:100F600041808180C18070470029818902D041F48D
:100F7000005101E021F400518181704710B5C1F3A7
:100F8000421301F01F040121A140012B01D10C30BB
:100F900004E0022B01D1103000E01430002A026876
:100FA00001D00A4300E08A43026010BD002A828A11
:100FB00001D00A4300E08A4382827047028A22F00D
:100FC0000F020282028A0A4302827047828922F457
:100FD0000062828182890A43828170470029818967
:100FE00002D041F0020101E021F00201818170474D
:100FF000028A22F020020282028A0A430282704799
:101000000029018A02D041F4804101E021F48041AD
:1010100001827047C1F30801818070478088C0F366
:1010200008007047818941F0010181817047028B7E
:10103000D2B20283028B42EA012101837047028B04
:1010400002F47F420283028B0A4302837047002925
:10105000818A02D041F0200101E021F0200181824B
:1010600070470029818A02D041F0100101E021F08F
:101070001001818270470029818A02D041F0080165
:1010800001E021F0080181827047828A22F0040287
:101090008282828A0A43828270470029818A02D032
:1010A00041F0020101E021F0020181827047024615
:1010B000128800200A4200D001207047C9430180F5
:1010C000704730B501F01F0201250024C1F342131F
:1010D00005FA02F2012B01D1838904E0022B01D130
:1010E000038A00E0838A4FEA11210088134205FA3F
:1010F00001F500EA050001D000B10124204630BD11
:101100000A0A01219140C94301807047004C004008
:1011100000BCFFBF003801400D49086070470C4912
:10112000486070470A498860704709494AF6AA2012
:101130000860704706494CF6CC4008607047044987
:101140000246C9680020114200D00120704700000B
:1011500000300040FF4A10B5811A1315D414904294
:101160003BD010DCB0F1804F22D0FB49401826D094
:1011700098422BD0A04241D101210820FFF791F9DC
:101180000021082036E099422ED0B1F58E3F0DD0D7
:10119000B1F5923F32D101214C032046FFF778F997
:1011A0002046BDE810400021FFF772B90121F4E7A5
:1011B00001210846FFF775F9002101201AE00121FD
:1011C0000220FFF76EF90021022013E00121042024
:1011D000FFF767F9002104200CE001211020FFF740
:1011E00060F90021102005E001212020FFF759F9C6
:1011F00000212020BDE81040FFF753B910BD028840
:1012000002F08F020280CA884B881A4303881A436F
:1012100002808A8882850A880285D04A904202D05C
:10122000CF4A904201D1097A01860121818270471B
:1012300030B5028C22F001020284028C8388048B78
:1012400022F0020224F070050C882C430D8915430E
:101250004A882A43CD888586C04DA84202D0C04D19
:10126000A8420DD14D8922F0080215438A8825F045
:1012700004052A438D8923F403431D43CB892B4363
:1012800083800483028430BD30B5028C22F01002CA
:101290000284028C8388048B22F0200224F4E0452F
:1012A0000C88240645EA14440D892D0542EA1545AB
:1012B0004A88120545EA1242CD880587A74DA84203
:1012C00002D0A74DA84215D14D8922F080022D05EC
:1012D00042EA15458A8825F04005120545EA124282
:1012E0008D89C989AD0423F40C4343EA154589046B
:1012F00045EA114383800483028430BD30B5028CFB
:1013000022F480720284028C8388848B22F400721F
:1013100024F070050C882C430D892D0642EA1545F2
:101320004A88120645EA1242CD8885878B4DA8422D
:1013300002D08B4DA84215D122F400654A8923F4CE
:101340003043120645EA124222F480658A8812066A
:1013500045EA12428D89C9892D0543EA15450905DB
:1013600045EA114383808483028430BD30B5028C0A
:1013700022F480520284048C8288838B24F40054EB
:1013800023F4E0450B881B0645EA13430D892D071E
:1013900044EA15454C88240745EA1444CD88A0F852
:1013A00040506E4DA84202D06D4DA84205D18989AA
:1013B000C2F30D05890545EA1142828083830484C6
:1013C00030BD828B22F440628283828B42EA01220A
:1013D00082837047828B22F00C028283828B0A43C5
:1013E00082837047028B22F440620283028B42EABE
:1013F00001220283704730B5048C24F01004048469
:10140000058B048C25F4734545EA033343EA022235
:1014100024F0200343EA011343F010010283018406
:1014200030BD028B22F00C020283028B0A4302833E
:10143000704770B50D46044608884988AA882B89EC
:1014400038B9204600F0B7FAE9882046BDE8704078
:10145000E7E7042807D12046FFF7CDFFE9882046BB
:10146000BDE87040BEE70828208C16D120F48070BB
:101470002084A68B208C26F0F30642EA031320F486
:101480000070334340EA012040F48070A38320843D
:10149000E9882046BDE870409CE720F48050208415
:1014A000A68B208C120226F4734642EA033220F403
:1014B0000050324340EA013040F48050A28320843F
:1014C000E9882046BDE870407BE72DE9F0410C46F5
:1014D000002549880746012601B90225A288012A6C
:1014E00000D10226208823890028384610D100F038
:1014F00062FAE1883846FFF794FF2389324629468D
:101500003846FFF778FFE1883846BDE8F04169E7E3
:10151000FFF771FFE1883846FFF764FF2389324601
:101520002946384600F047FAE1883846BDE8F041E0
:1015300077E710B50A884B88CC881A438B882343F9
:101540001A430B891A434B8989891A430A43A0F825
:10155000442010BD0010004000FCFFBF002C0140E3
:10156000003401404FF6FF71818000210180C1806D
:101570004180017270470021018041808180C180DB
:10158000018141818181C1817047002101804180B9
:1015900001228280C1800181704700210180418049
:1015A0008180C1800181418181817047002901884A
:1015B00002D041F0010102E040F2FE321140018010
:1015C0007047002930F8441F02D041F4004101E087
:1015D000C1F30E0101807047002A828901D00A43BD
:1015E00000E08A4382817047818270471143A0F8EE
:1015F00048107047002A828901D00A4300E08A43DC
:1016000082817047018921F00701018170470289B9
:1016100022F070020A4302817047028922F07002B0
:101620000A430281018941F007010181704770B5C9
:101630000D4611460446602D4FF0010202D1FFF71E
:10164000DAFE01E000F0B7F9208920F070002843AD
:101650002081208940F00700208170BD10B50489E9
:101660001143E4B241EA03212143018171E710B53E
:101670000446FFF7F3FF208940F07700208168E7F8
:1016800010B50446FFF7EAFF208940F4804020812E
:101690005FE7018582827047028840F28F331A40EB
:1016A0000A430280704770B50689048B058C26F0CA
:1016B00007060E434FF6FC410C4040F201110C436B
:1016C00025F0220542EA031129430681048301849F
:1016D00070BD028B22F070020A4302837047028BB6
:1016E00022F4E04242EA012101837047828B22F01A
:1016F00070020A4382837047828B22F4E04242EAFE
:101700000121818370470029018802D041F08001C6
:1017100002E040F27F321140018070470029818849
:1017200002D041F0040101E021F004018180704702
:101730000029818802D041F0080101E021F0080170
:10174000818070470029818802D041F0010101E0C9
:1017500021F0010181807047028B22F008020A43C8
:1017600002837047028B22F4006242EA0121018366
:101770007047828B22F008020A4382837047828B73
:1017800022F4006242EA012181837047028B22F039
:1017900004020A4302837047028B22F4806242EA09
:1017A000012101837047828B22F004020A43828365
:1017B0007047828B22F4806242EA01218183704764
:1017C000028B22F080020A4302837047028BC2F32D
:1017D0000E0242EA012101837047828B22F08002CF
:1017E0000A4382837047828BC2F30E0242EA0121D0
:1017F00081837047028C22F002020A430284704700
:10180000028C22F008020A4302847047028C22F004
:10181000200242EA011101847047028C22F080020A
:1018200042EA011101847047028C22F4007242EAFC
:10183000012101847047028C22F4006242EA0121F6
:1018400001847047028C22F4005242EA0131018483
:10185000704710B5048C01238B409C430484038C97
:101860008A401343038474E610B5048C04238B4030
:101870009C430484038C8A401343038469E610B5B7
:10188000048C01238B409C43048409B1082908D1AE
:1018900000EB510081694FF68F73194081618169B6
:1018A0000BE0091F89B200EB5100816948F6FF7314
:1018B0001940816181691206120C1143816148E669
:1018C0000029018802D041F0020102E040F2FD321D
:1018D0001140018070470029018802D041F00401C5
:1018E00002E040F2FB3211400180704700298188FC
:1018F00002D041F0800101E021F080018180704739
:10190000028840F2F7331A40028002880A430280BC
:101910007047828822F07002828082880A43828027
:101920007047028922F00702028102890A4302817C
:101930007047028922F08002028102890A430281F3
:101940007047818470478185704781867047018721
:10195000704781877047A0F8401070470288D2B264
:10196000028002880A4302807047808E7047008F91
:101970007047808F7047B0F840007047808C704788
:10198000008D70470246128A00200A4200D00120D2
:101990007047C943018270470246138A002092892A
:1019A0000B4202EA010202D0002A00D00120704757
:1019B000C9430182704730B5048C24F001040484CB
:1019C000058B048C42EA031325F0F3052B4324F026
:1019D00002020A4342F001010383018430BD00008A
:1019E00038B501210820FEF741FD0320ADF80000C5
:1019F00010218DF80310574C8DF8020069462046DF
:101A0000FFF701F903212046FFF769F938BD514A74
:101A100000284FF00301104601D0FFF760B9FFF72F
:101A20005CB93EB501210846FEF729FD4FF0804420
:101A30002046FFF78FFB2046FFF7E4FD42F20F70D0
:101A4000ADF800000020ADF80600ADF8020040F24D
:101A5000E730ADF8040069462046FFF7D0FB0121CE
:101A60002046FFF796FF00212046FFF74CFE01229B
:101A700011462046FFF7B0FD01212046FFF796FDF5
:101A80003EBD08B500214FF00060FFF7B4F94FF4F8
:101A9000C060FFF77DF91C208DF8000000208DF854
:101AA00001008DF8020001208DF803006846FFF761
:101AB00074F908BD10B5FEF76DFBFFF7E2FF00F00B
:101AC0003EFC482000F09FF900F06CF800F06BFC41
:101AD000FFF786FFFFF7A5FF1FA000F0C2FC24A0C0
:101AE00000F0BFFC26A000F0BCFC20A000F0B9FC78
:101AF00000F066FE00F0E4F924A000F0B2FC002142
:101B00004FF08040FFF752FD23480168234A1140FF
:101B1000B1F1005F04D144680068FEF71CFBA047E8
:101B2000002010BD10B501218C072046FFF734FFBF
:101B300000280DD001212046FFF73AFF1849012067
:101B40000A7802B100200870BDE81040C0B25EE71C
:101B500010BD0000000C0140426F6F744C6F616457
:101B600065722052756E696E672E2E2E0A00000077
:101B7000426F6F744C6F6164657220666F722000F3
:101B8000B4F3BCAFD6D0C6F7000000004C6F616460
:101B900020417070210A0000003000080000FE2F74
:101BA0001400002030B587B0012141F21D00FEF77E
:101BB0005DFC8020ADF8180010208DF81B00864DCC
:101BC00003248DF81A4006A92846FFF71CF8E020E8
:101BD000ADF818008DF81A4018208DF81B0006A9E2
:101BE0007E48FFF710F880212846FFF776F800209E
:101BF000ADF80400ADF808004FF48271ADF806109E
:101C00000221ADF80A100121ADF81000ADF80C105A
:101C1000ADF8120049020720714CADF80E10ADF876
:101C2000140001A92046FEF795FC01212046FEF78D
:101C30000EFD80212846FFF750F807B030BD70B583
:101C4000674C054602212046FEF76DFD0028F9D0BD
:101C500029462046FEF723FD01212046FEF763FDBD
:101C60000028F9D02046FEF71CFDC0B270BD2DE95A
:101C7000F0410746104415460C46B0F5000F20D839
:101C8000554E80213046FFF72AF80320FFF7D7FF93
:101C9000C7F30740FFF7D3FFC7F30720FFF7CFFFD6
:101CA000F8B2FFF7CCFF04E0A520FFF7C8FF04F867
:101CB000010B6D1EF8D23046BDE8F0418021FFF7E0
:101CC0000CB8BDE8F08110B5434C80212046FFF7E9
:101CD00006F80520FFF7B3FFA520FFF7B0FFC00708
:101CE000FAD12046BDE810408021FEF7F6BF70B55E
:101CF000B0F5006F1CD2040300F05FF8364D802170
:101D00002846FEF7ECFF2020FFF799FFC4F30740B9
:101D1000FFF795FFC4F30720FFF791FFE0B2FFF74D
:101D20008EFF80212846FEF7D8FFBDE87040CAE745
:101D300070BD10B500F041F8274C80212046FEF719
:101D4000CEFFC720FFF77BFF80212046FEF7C5FFAF
:101D5000BDE81040B7E72DE9F041044610441646AF
:101D6000B0F5000FADD80D461B4F00F026F88021CE
:101D70003846FEF7B4FF0220FFF761FFC4F30740C7
:101D8000FFF75DFFC4F30720FFF759FFE0B2FFF74D
:101D900056FF07E02878FFF752FF6D1C641C14F013
:101DA000FF0F01D0761EF5D280213846FEF795FF51
:101DB000FFF789FF701CD8D183E710B5064C80214E
:101DC0002046FEF78CFF0620FFF739FF2046BDE8CE
:101DD00010408021FEF781BF000C01400008014047
:101DE0000030014010B502460020234B08E012F8F5
:101DF000014B84EA102433F8144084EA002080B2B6
:101E0000491EF4D210BD4FF0E0210A6922F004020D
:101E10000A61C10819484FF47A720170C9B251437E
:101E2000418070471549498848434FF0E021486197
:101E3000086940F00100086100E000BF0869C003C4
:101E4000FBD5086920F00100086100208861704717
:101E50000A49097848434FF0E0214861086940F099
:101E60000100086100E000BF0869C003FBD5002045
:101E70000861886170470000E6290008160000200C
:101E800070B506468F48082200EB01108E4900F01D
:101E900081F94FF0FF3508280ED18B4C3146206870
:101EA000A28800F5ED00FFF7E2FEA1883046FFF7BB
:101EB00099FFE188884201D0284670BDA08870BD96
:101EC0002DE9F04781A000F0CCFA7F497D4804223B
:101ED0000C391C3800F05EF94FF0FF3504281ED194
:101EE000794881490C380068884218D1764975488C
:101EF00008220839103800F04DF908280FD1724E29
:101F0000083E3068B0F51C2F09D8706840F2FE31E9
:101F1000884204D875A000F0A4FA00240FE02846F7
:101F2000BDE8F08700F01DFA21467548FFF7A8FFCD
:101F3000002803DA73A000F094FAF0E7641C7068DC
:101F4000A042EFD874A000F08CFA00F0A4F9774F0B
:101F50007549384600F0D6F920B175A000F081FA35
:101F600000F0E2F90024DFF8989179A000F079FA06
:101F70000025CA46B0463AE000F0F3F977A000F039
:101F800070FA29464846FFF77BFF061E04DA74A064
:101F900000F067FA00F0C8F93444594E0BE0802293
:101FA0003146384600F09DF9002801DA00F0BCF90E
:101FB00080378036803C802CF1D2ACB1224631464D
:101FC0004F4800F0BBFCD8F80400401EA8420BD1DB
:101FD000C4F180010AEB0400FF2200F0CFFC802254
:101FE0004749384600F07DF90AEB04096D1CD8F822
:101FF0000400A842C0D800F056F946A000F031FA1B
:102000005EA000F02EFAD8F80400A84203D140F2F6
:102010006470FFF76CFE002082E770B540F26474D4
:102020004FF4006500F09DF92046FFF760FE641C48
:10203000AC42F7D32449002008390860486070BDDD
:102040002149204810B508220839103800F0CBF893
:102050001C480422BDE810404D491C3800F0C3B8AC
:102060002DE9F041184C0D46083C216806464A19F6
:102070004FF0FF30B2F51C2F22D8626840F2FE33D9
:102080009A421DD201F5ED002A463146FFF763FE64
:102090000D4F20683860BD8029463046FFF7A2FE0C
:1020A000F88008486168082200EB0110394600F00A
:1020B0009AF82068284420606068401C6060002016
:1020C000BDE8F0811C407600280000205570646156
:1020D00074652050726F6772616D20436865636B31
:1020E0002E2E2E0A00000000897013255072657094
:1020F000617265205570646174652E2E2E0A000091
:102100003000002043726320636865636B20657252
:10211000726F72210A000000437263206368656376
:102120006B206F6B210A00000000020800300008DD
:10213000456172736520666C617368204572726FC9
:1021400072215265626F6F742E2E2E0A00000000FD
:102150005570646174696E67200000002E000000F5
:1021600043726320636865636B206572726F7221CE
:102170005265626F6F742E2E2E0A000055706461D6
:1021800074652066696E73686564210A000000004A
:10219000E82B00082DE9FC410D46174606460822AB
:1021A0006946FFF764FD06216846FFF71BFEBDF890
:1021B00006104FF0FF34884210D10098B8420DD17C
:1021C0000246294606F10800FFF751FD284600990E
:1021D000FFF708FEBDF80410884202D02046BDE893
:1021E000FC810098FBE77CB50E4605461446114677
:1021F0003046FFF7F7FDADF804000621684600946D
:10220000FFF7F0FDADF80600082269462846FFF703
:10221000A2FD2246314605F10800FFF79CFD20464D
:102220007CBD70B514460E461D4600031A46214675
:10223000FFF7B0FF002806DA30032A462146FFF7F1
:10224000A9FF002801DB284670BD4FF0FF3070BDAC
:102250002DE9F04106460F4690461D46002406E053
:102260003019FFF744FD3819FFF741FD641C2805BC
:1022700000D0012000EB1530A042F1D830032A46EF
:102280004146FFF7B0FF38032A464146FFF7ABFF50
:102290002846BDE8F08110B5FEF787FABDE810408A
:1022A0003520FEF74BBCFEF786BA2DE9F041054616
:1022B0000C464FF0FF3701EB82060EE028462168FE
:1022C000FEF70FFB042803D128682168884202D05A
:1022D0003846BDE8F0812D1D241DA642EED8002011
:1022E000F7E730B4D31702EB93739C1023F003038A
:1022F000D21A002A03DD30BC4FF0FF307047A2B283
:1023000030BCD2E770B50D46044608E02046FEF723
:102310007DFA042801D0012070BD04F50064AC42B0
:10232000F4D9002070BD0000012080F313880E480E
:1023300001680E4A01F4E06111430160FEE710B547
:1023400045F25550FEF7E8FE0620FEF7E8FE40F69F
:102350003440FEF7E7FEFEF7E8FEBDE81040FEF76A
:10236000E9BEFEF7E2BE00000CED00E00400FA0555
:1023700038B54FF48060ADF8000003208DF80200FE
:102380001820A14C8DF8030069462046FEF73BFC5F
:10239000E014ADF8000048208DF80300694620469F
:1023A000FEF731FC38BD30B5984D87B00021284686
:1023B000FEF7DAFD01210820FEF758F80121880414
:1023C000FEF75DF8FFF7D4FF00244FF4E1300390EF
:1023D000ADF814400C20ADF81040ADF81600ADF883
:1023E0001240ADF8184003A92846FEF75AFD6815BB
:1023F000ADF80800ADF80440ADF80640ADF80A406D
:1024000001A92846FEF79BFD01212846FEF7ACFDF9
:1024100007B030BD10B5044620217C48FEF747FECA
:10242000002805D04FF04020B0F8040820700120AB
:1024300010BD10B5754C01462046FEF7EBFD80211E
:102440002046FEF734FE0028F9D010BD08B5002064
:1024500000906846FFF7DEFF0028FAD09DF80000E4
:1024600008BD10B5044602E0FFF7E3FF641C2078C6
:102470000028F9D110BD70B505460024FFF7E6FF2E
:102480000D2817D0082806D1002CF7D060A0FFF740
:10249000E8FF641EF2E7802C03D35EA0FFF7E1FFA4
:1024A000EBE7A0F120015E29E8D82855641CFFF76E
:1024B000C0FFE3E75FA0FFF7D4FF0020285570BD01
:1024C0002DE9F04100225C4B154614464FF00A0EF0
:1024D0004FF00108B1FBF3F6374603FB1711303616
:1024E0008654B3FBFEF3521C871817F8017CC446D0
:1024F0004646302F00D000260DB14FF0000C16EAF2
:102500000C0F01D0002200E06D1C641C0A2CE1D3EA
:10251000BDE8F08170B5002302781C46302A2CD12A
:102520004278782A01D0582A27D1827802B3022330
:10253000C25C0AB90C602CE0A2F14105052D07D957
:10254000A2F16106052E03D91135092D38D803E013
:10255000A2F13006092E01D8303A04E0052D01D849
:10256000373A00E0573A5B1C02EB04140B2BDFD325
:1025700001E00B2B00D3002070BD6FF02F05C25C73
:10258000002AD7D06B2A01D04B2A04D11BB1A0025C
:1025900007E00120EDE76D2A01D04D2A03D113B1E8
:1025A00020050860F5E7A2F13006092E08D804EBF3
:1025B000840405EB44045B1C14440B2BDFD3DAE7E3
:1025C0000020D6E71FB504466846FFF754FF9DF884
:1025D00000000028F8D0612801D0412808D19DF8DA
:1025E000010028B915A0FFF73CFF002004B010BD82
:1025F00021466846FFF78EFF18B915A0FFF731FF97
:10260000E2E70120F2E70000000C01400048004032
:1026100008200800436F6D6D616E642073747269E9
:102620006E672073697A65206F766572666C6F7766
:102630000D0A00000A0D000000CA9A3B557365722E
:102640002043616E63656C6C6564200D0A000000B8
:102650004572726F722C20496E70757420616761CB
:10266000696E3A200D0A00002DE9F14F4FF0000A83
:1026700088B0994DDFF864B2D14656465746CDF83A
:1026800004A000240898A0460390FFF76AFE944A2D
:1026900002A9284600F0BFF860B1012874D11820C3
:1026A000FFF7C7FE1820FFF7C4FE6FF0020009B065
:1026B000BDE8F08F029A0026B2F1FF3F04D02AB99C
:1026C0000620FFF7B6FE75E0062066E06878E1B206
:1026D000884201D0152065E0A4BBE87898B30020BB
:1026E000E91C5B4602E01A54491C401C0A780AB1F6
:1026F000FF28F8DD03F800A000205746491C04AB72
:1027000002E01A54491C401C0A78202A01D01028E3
:10271000F7DB1F5401A904A8FFF7FCFE71490198DB
:10272000884208DD1820FFF784FE1820FFF781FE9D
:102730004FF0FF30BBE7FFF770FC0620FFF779FE94
:10274000432012E006E0FFE70620FFF772FEFFF7E6
:1027500077FC33E0E91C039800F0F0F8029881B2AE
:102760000898FFF77DFC28B90620FFF762FE641C7D
:10277000012719E01820FFF75CFE1820FFF759FE2B
:102780006FF0010093E7FFE7002F00DD761C052EB8
:1027900007DD1820FFF74DFE1820FFF74AFE002046
:1027A00085E74320FFF745FEB8F1000F02D1FFF7A0
:1027B000D8FD6AE7B9F1000F3FF463AF019876E7FF
:1027C00038B549A0FFF74DFE00244FF4FA7568466E
:1027D000FFF720FE012811D19DF8000079280DD1C6
:1027E00048A0FFF73EFE4A48FFF73EFF002801DB06
:1027F00048A000E04CA0FFF734FE38BDFFF7B1FD64
:102800002846FFF70FFB4CA0FFF72BFE641C052C9E
:10281000DDDB3EA0EFE72DE9F84F884600210546B5
:10282000C8F8001092461146684600F03FF84FF095
:10283000FF39A8BB9DF80000182816D006DC012837
:102840000BD002280BD004282ED029E0412801D03B
:10285000612825D10120BDE8F88F802601E04FF4E2
:10286000806601242870771D12E05146684600F00A
:102870001DF8A8B99DF80000182811D1C8F80090DB
:1028800012E02819514600F011F848B9641CA4B2AE
:10289000BC42F6D3A978687881F0FF01884201D064
:1028A0004846D8E7C8F800600020D4E770B5054670
:1028B0000C460BE0FFF755FD2846FFF7ABFD01285E
:1028C00001D1002070BD0120FFF7C2FA641EF1D2D1
:1028D0004FF0FF3070BD000030000020E80B0020FA
:1028E00040420F0001C00900507265737320616E91
:1028F00079206B657920746F20796D6F64656D2127
:10290000000000000A796D6F64656D3A0A000000EE
:10291000E80C0020596D6F64656D207375636573F5
:102920007365642120090A00596D6F64656D206626
:1029300061696C6564210A002E00000010B5431A1D
:10294000934209D28318881803E010F8011D03F898
:10295000011D521EF9D210BD40EA01039B070AD1A6
:1029600002E008C9121F08C0042AFAD203E011F8D5
:10297000013B00F8013B521EF9D210BDD2B201E07A
:1029800000F8012B491EFBD270470022F6E710B574
:1029900004460846114602462046FFF7EFFF204650
:1029A00010BD0000064C074D06E0E06840F0010352
:1029B00094E8070098471034AC42F6D3FDF7BCFB0F
:1029C000EC2B00080C2C000802E008C8121F08C1FC
:1029D000002AFAD170477047002001E001C1121FA0
:1029E000002AFBD170470000211042206330844050
:1029F000A550C660E770088129914AA16BB18CC1CE
:102A0000ADD1CEE1EFF13112100273325222B55244
:102A10009442F772D662399318837BB35AA3BDD31D
:102A20009CC3FFF3DEE36224433420040114E66414
:102A3000C774A44485546AA54BB528850995EEE56D
:102A4000CFF5ACC58DD55336722611163006D77624
:102A5000F6669556B4465BB77AA719973887DFF7BD
:102A6000FEE79DD7BCC7C448E5588668A7784008EC
:102A7000611802282338CCC9EDD98EE9AFF948890D
:102A800069990AA92BB9F55AD44AB77A966A711A84
:102A9000500A333A122AFDDBDCCBBFFB9EEB799B5D
:102AA000588B3BBB1AABA66C877CE44CC55C222CD4
:102AB000033C600C411CAEED8FFDECCDCDDD2AADAD
:102AC0000BBD688D499D977EB66ED55EF44E133E64
:102AD000322E511E700E9FFFBEEFDDDFFCCF1BBFFD
:102AE0003AAF599F788F8891A981CAB1EBA10CD1D7
:102AF0002DC14EF16FE18010A100C230E3200450DF
:102B0000254046706760B9839893FBA3DAB33DC351
:102B10001CD37FE35EF3B1029012F322D23235422E
:102B2000145277625672EAB5CBA5A89589856EF5E1
:102B30004FE52CD50DC5E234C324A014810466747E
:102B4000476424540544DBA7FAB79987B8975FE731
:102B50007EF71DC73CD7D326F2369106B0165766CE
:102B60007676154634564CD96DC90EF92FE9C899B9
:102B7000E9898AB9ABA94458654806782768C0181E
:102B8000E1088238A3287DCB5CDB3FEB1EFBF98B91
:102B9000D89BBBAB9ABB754A545A376A167AF10A6E
:102BA000D01AB32A923A2EFD0FED6CDD4DCDAABDA1
:102BB0008BADE89DC98D267C076C645C454CA23CBE
:102BC000832CE01CC10C1FEF3EFF5DCF7CDF9BAF71
:102BD000BABFD98FF89F176E367E554E745E932E0E
:102BE000B23ED10EF01E0000897013250C2C000897
:102BF0000000002030000000C82900083C2C00081C
:102C00003000002088160000D829000802040608B9
:102C10000000000001020304010203040607080982
:102C200001000000000000000000000000000000A3
:0C2C300000000000000000000000000098
:0400000508000131BD
:00000001FF
