:1018BB00FEFE6899999999999968010265F3C11689
:0E18CB00FEFE68AAAAAAAAAAAA681300DF163F
:10152D00011C00C11FC1A0C1A14600E200000000C6
:10153D0000004600EA000000000000C11E4200E865
:0C154D00FFFF4200F200004200F000002E
:10070D00C2AFE4F5B174FF900000F0A3F0900001CA
:10071D00E024FFF0900000E034FFF0E07002A3E071
:10072D0070EB74FF900000F0A3F0900001E024FF47
:10073D00F0900000E034FFF0E07002A3E070EB7485
:10074D00FF900000F0A3F0900001E024FFF0900076
:10075D0000E034FFF0E07002A3E070EB74FF900056
:10076D0000F0A3F0900001E024FFF0900000E034D1
:10077D00FFF0E07002A3E070EB12003EE4F51CC246
:10078D001FD220D2211216B81215ADC21EE4900050
:10079D00F2F0A3F09000F0F0A3F09000E804F0A3C5
:1007AD0074F4F0D2AFE4F5B1D39000F3E094589027
:1007BD0000F2E094024008C2AFE4F0A3F080FED353
:1007CD009000F1E094589000F0E094024008C2AF20
:1007DD00E4F0A3F080FE301E0B120B15121059120F
:1007ED00001680C19000E8E07002A3E070B79000A1
:1007FD00847410F0C2ACC299C298E4F508900084DC
:10080D00E0FFE508C39F500EE5089018BB93FF125B
:10081D0018D9050880E7D2ACC222C224E490008525
:10082D00F0C223F5B19000E804F0A374F4F0202495
:10083D000F9000E8E07002A3E0600512105980EE01
:10084D00202403020940C22474FF9000E8F0A3F0B5
:10085D00E4F508900084E02404FFE433FEC3E508CA
:10086D009FEE6480F8748098501474862508F58284
:10087D00E43400F583E064686004050880D574866F
:10088D002508F9E43400FA7B017D121218588F09FE
:10089D0074982508F582E43400F583E0650960035A
:1008AD00020AE4748E2508F582E43400F583E064D1
:1008BD00816003020AE49000E8F0A37464F0D2862C
:1008CD00D2879000E8E07002A3E070F69000E8E4B3
:1008DD00F0A37464F0C286C2879000E8E07002A3B2
:1008ED00E070F69000E8E4F0A37464F0D286D2874D
:1008FD009000E8E07002A3E070F69000E8E4F0A349
:10090D007464F0C286C2879000E8E07002A3E070C4
:10091D00F6D21EE49000F2F0A3F09000F0F0A3F0F8
:10092D0074FF9000E8F0A3F074922508F9E4340008
:10093D00020A82900084740EF0C2ACC299C298E48F
:10094D00F508900084E0FFE508C39F500EE5089080
:10095D0018CB93FF1218D9050880E7D2ACC222C27A
:10096D0024E4900085F0C223F5B19000E804F0A3D3
:10097D0074F4F020240F9000E8E07002A3E060050D
:10098D0012105980EE202403020AF9C22474FF903C
:10099D0000E8F0A3F0E4F508900084E02404FFE4FF
:1009AD0033FEC3E5089FEE6480F87480985014748C
:1009BD00862508F582E43400F583E064686004055B
:1009CD000880D574862508F9E43400FA7B017D1082
:1009DD001218588F0974962508F582E43400F583B2
:1009ED00E065096003020AE4748E2508F582E4349B
:1009FD0000F583E064936003020AE49000E8F0A33D
:100A0D007464F0D286D2879000E8E07002A3E070A3
:100A1D00F69000E8E4F0A37464F0C286C2879000FB
:100A2D00E8E07002A3E070F69000E8E4F0A37464CF
:100A3D00F0D286D2879000E8E07002A3E070F690C5
:100A4D0000E8E4F0A37464F0C286C2879000E8E089
:100A5D007002A3E070F6D21EE49000F2F0A3F090C5
:100A6D0000F0F0A3F074FF9000E8F0A3F07490256F
:100A7D0008F9E43400FA7B0178EA7C007D017E0000
:100A8D007F061204AB9000EAE024CD9000E2F090D6
:100A9D0000EBE024CD9000E3F09000ECE024CD904D
:100AAD0000E4F09000EDE024CD9000E5F09000EE34
:100ABD00E024CD9000E6F09000EFE024CD9000E72B
:100ACD00F078EA7C007D017B017A0079E27E007F7F
:100ADD00061204AB0207B2C224E4900085F0C223D3
:100AED009000E804F0A374F4F00207B29000E874EB
:100AFD0001F0A374F4F0051CE51CD394024003E44B
:080B0D00F51C1215AD0207B240
:10003E0075E1C075E28075E9F875EAFFE4F580F5C3
:10004E0090758921D28EC28F758CC1758A80C28DB2
:10005E00D28C7593807594A875B80275B412F5A8F4
:08006E0075A901D2AFD2A9224D
:08155900C122C123C125C124F8
:1015AD00D2CDD2CC53870FE51C70028026E51CB43A
:1015BD00010E75CDFF75CC9875CBFF75CA98801F40
:1015CD00E51CB4020E75CDFF75CCCC75CBFF75CA7D
:1015DD00CC800C75CDFF75CC3075CBFF75CA30D274
:1015ED00CAE4F59BF59AD29FD29EC29DD29CD2ACF5
:1015FD00C298C299FE7F5EFD7B017A007984120646
:0A160D00E174FF9000E0F0A3F0226A
:10105900C2262023030211449000E0E07002A3E0BD
:1010690060343098F3E599A2D0309A01B3402190C9
:101079000085E02486F582E43400F583E599F09053
:101089000085E004F09000E0E4F0A37414F080021D
:10109900D226C29880C2302603021124D22490009D
:1010A90085E0900084F0E4A3F0F50A900084E0FF65
:1010B9002404FDE433FCE50AC39DEC6480F87480E4
:1010C9009850147486250AF582E43400F583E064A7
:1010D900686004050A80D4748F250AF582E4340017
:1010E900F583E0F50B240CFDE433FCD3ED9F74800C
:1010F900F86C9850267486250AF9E43400FA7B01C5
:10110900E50B240AFD121858E50A250B2490F582EF
:10111900E43400F583E06F60138000C2247E007F11
:101129005E7D007B017A0079841206E1C226C22322
:1011390074FF9000E0F0A3F0D2AC22202203021148
:10114900C9C2ACC299C298E4F50A900084E02404AB
:10115900FFE433FEC3E50A9FEE6480F8748098507B
:10116900147407250AF582E43400F583E0646860A5
:1011790004050A80D57408250AF9E43400A801FC9D
:101189007D017B017A0079E27E007F061206BDEFC0
:101199007028F50A900084E0FFE50AC39F50147493
:1011A90007250AF582E43400F583E0FF1218D90512
:1011B9000A80E1E49000F2F0A3F0D225C222D2AC79
:0111C9002203
:1018D90074FFFDFCEFA2D0929BF599209909ED1DAB
:0918E90070011CED4C70F4C29971
:0118F20022D3
:061858008B0C8A0D890EC5
:10185E00E4FFFEEEC39D5013AB0CAA0DA90E8E82B3
:0B186E007583001204EA2FFF0E80E8D3
:01187900224C
:101561004200000000C10EC109C10A011700C117E4
:10157100C118C113C112C110C111C115C116011881
:1015810000011600C108C10FC10CC10BC10DC1146E
:0D159100011900420004FFFF420002FFFFAD
:1016B8007E007F5D7D007B017A0079061206E17469
:1016C800FF900061F0A3F0C20EC218C217C20AC28E
:1016D80009C212C210C213C20DC208C20FC215E459
:1016E800F518C211F516C21674FF900004F0A3F0A5
:0A16F800900002F0A3F01218F32294
:1018F30030200930110302174A0216171217022269
:0A001600302003020E7612134D2273
:1016170075DFA543D90475D9E8E4FDFF12189F7D4E
:101627001F7F0112189F301F047D4380027D417F79
:101637000212189F12189B7D5C7F0412189F7D80F1
:101647007F0512189FE4FD7F0612189F7D107F0704
:1016570012189F7D0A7F0812189FE4F5B275DF5AAA
:011667002260
:1017020075DFA543D90475D9E87D80E4FF12189FDF
:101712007D1F7F0112189F301F047D4380027D418F
:101722007F0212189F12189B7D5C7F0412189F7D06
:10173200067F0E12189F7D907F0C12189F7DB07F3E
:081742000D12189F75DF5A22F9
:10174A0075DFA543D90475D9887DC0E4FF12189FB7
:10175A007D047F0112189F301F047D4380027D4162
:10176A007F0212189F12189B7D5C7F0412189F7DBE
:10177A00067F0E12189F7D907F0C12189F7DB07FF6
:08178A000D12189F75DF5A22B1
:10134D00300E3FE5D920E02820182512180820D8A6
:10135D0003301704C2D8C21743D90120D803301760
:10136D0004C2D8C217900004E4F0A3745AF080545C
:10137D00301851C218C20E900004E4F0A3740AF0A4
:10138D008042301715C217121830D209C212C2107E
:10139D0074FF900002F0A3F0802020121030D90DC0
:1013AD00D212900002E4F0A37450F0800D20100AC8
:1013BD0030DA07D2101211CA8F1720D902C21220AB
:1013CD00DA02C210900002E07002A3E0700B121658
:1013DD00B874FF900002F0A3F0900004E07002A337
:1013ED00E0700CD20AC20E74FF900004F0A3F0223C
:100E7600E4F50BF50CF50DF50EF50FF510200E0348
:100E8600020F66201149301812C218C20DD211C2C3
:100E96008B438804C213D2AA021032E5D930E0038C
:100EA600021032C2111218F312180820D803301794
:100EB60004C2D8C21743D90120D803301704C2D8B8
:100EC600C2179000047401F0A374C2F0021032300D
:100ED6001315C213D208121792E4F5161217D09002
:100EE6000082EFF01218F330181AC218E516C394F0
:100EF600085003021032900004E4F0A37450F0C2CC
:100F06000E021032E5D930E003021032200D030242
:100F16001032E4F50A850ADA75F004E516A4250A06
:100F2600F582E435F0F583E5822463F582E58334C2
:100F360000F583E0F5DB050AE50AB404D8051620BA
:100F4600D803301704C2D8C21743D90120D80330BA
:100F56001704C2D8C217C20DD20F1217920210324E
:100F6600900002E07002A3E0703AC209301504D284
:100F7600098019E518C394204012900082E0F50D0F
:100F86001217D08F0EE50DB50E02D209E4F518C280
:100F960015C210C212C2111218F3C21674FF9000C5
:100FA60002F0A3F030173520152E20110712183045
:100FB600D2158024E518C39420501DE4F50A850A4D
:100FC600DA74632518F582E43400F583E5DBF00571
:100FD60018050AE50AB404E6C217803220121F304B
:100FE600D91CD212201627D2169000027401F0A343
:100FF60074AEF0C215C211E4F518C21080102010AC
:101006000D30DA0A201107D2101211CA8F1720D913
:101016001130120EC212201109D20CE4900000F019
:10102600A3F0301407C214D2111218F3900004E092
:101036007002A3E0701C74FF900004F0A3F0E4F5C6
:1010460016C211C2131218F3C20DC20EC20FC20885
:02105600D20ABC
:011058002275
:10129200300C13C3900001E0940A900000E0940027
:1012A2004004C20CD214300813C3900001E0951917
:1012B200900000E094004004C208D20D300F13C326
:1012C200900001E09519900000E094004004C20FE4
:1012D200D20D900004E0FEA3E0FF4E6013EFF47025
:1012E20002EEF4600BE024FFF0900004E034FFF023
:1012F200900002E0FEA3E0FF4E6013EFF47002EEF6
:10130200F4600BE024FFF0900002E034FFF0900064
:1013120061E0FEA3E0FF4E6013EFF47002EEF460B2
:101322000BE024FFF0900061E034FFF09000E0E079
:10133200FEA3E0FF4E6013EFF47002EEF4600BE0E8
:0B13420024FFF09000E0E034FFF022F8
:10187A0020D808E5D920E00330DF06C2D8C2DFC38A
:10188A0022D20E74FF900004F0A3F0C218C20AD349
:01189A00222B
:061808007B017A00796308
:06180E008B118A12891300
:10181400E4FF8FDAAB110513E513AA127002051267
:0B18240014F91204D1F5DB0FBF1FE721
:01182F002296
:061830007B017A007963E0
:061836008B118A128913D8
:10183C00E4FF8FDAAB110513E513AA12700205123F
:0B184C0014F9E5DB1205170FBF1FE7C2
:01185700226E
:04189B007D5C7F03EE
:10189F008FDCE5DCB40112ED75F00B84C4333354E7
:0C18AF00C0F5DDED25DDF5DD228DDD222C
:1011CA00E4F511F512F513FFFEF514F51575938084
:1011DA007594A8439301E59320E0FB75DC1185DD46
:1011EA001475DC1085DD15AC97E41203267B337A7F
:1011FA003379D3783F120176C004C005C006C00710
:10120A00AC14E4120326A804A905AA06AB07D00762
:10121A00D006D005D004120081E4FBFA793C78426A
:10122A00120176C004C005C006C007C3E5159514AF
:10123A00FDE49400FCE4120321A804A905AA06AB64
:10124A0007D007D006D005D00412027FE4FBFA7952
:10125A007C784212008512035AEF2513F513EE35F6
:10126A0012F5125393BF0511E511640860030211C8
:10127A00DD53937FE513AE127803CEC313CE13D892
:07128A00F9FFC374FF9FFF91
:01129100223A
:0817D0007B017A0079637F1FA1
:0617D8008B118A12891337
:1017DE00E4FEEFD3941F40027F1FE4FDEDC39F5044
:1017EE0016AB110513E513AA127002051214F912A5
:0917FE0004D12EFE0D80E5AF06BA
:0118070022BE
:10179200E4900000F0A3F030211A30080A758AC0E4
:1017A200758CE075191222300F23758A80758CC1F1
:1017B20075190A2230080A758A80758CF375190F1B
:0E17C20022300F09758A40758CED75190922C9
:04159E00021A00002D
:03007B000200037D
:0200030080FE7D
:03000B000213FDE0
:1013FD00C0E0C0F0C083C082C0D075D000C000C0B6
:10140D0001C002C003C004C005C006C007C2AF754D
:10141D008A80758CC1900001E004F0700690000088
:10142D00E004F01212929000E8E0FEA3E0FF4E609F
:10143D0013EFF47002EEF4600BE024FFF09000E87F
:10144D00E034FFF0051BE51B7002051AC394E8E5B7
:10145D001A94034022751A00751B009000F3E004E6
:10146D00F070069000F2E004F09000F1E004F070EE
:10147D00069000F0E004F0D2AFD007D006D005D032
:10148D0004D003D002D001D000D0D0D082D083D0F0
:04149D00F0D0E03279
:03001300021903CC
:09190300C2AFC2AAD213D2AF3266
:030023000216685A
:10166800C0E0C083C082C0D0C2AFC2AC30983620C0
:101678002331E599A2D0309A01B34025900085E442
:10168800F0E02486F582E43400F583E599F09000D3
:1016980085E004F09000E0E4F0A37414F0D2238015
:1016A80002D2ACC298D2AFD0D0D082D083D0E032B0
:03003B000200269A
:10002600C2AF30DF04C2DFD21830D804C2D8D2172C
:03003600D2AF3214
:0A15A200C11AC119C11DC11BC11CF3
:100B1500E5D9139286A2DB72DA9287300974C2098D
:100B2500900081E030E72EE4F50A7463250AF5822A
:100B3500E43400F583E0FF900006E02407F582E445
:100B45003400F583EFF0900006E004F0050AE50AAD
:100B5500B41DD7803DE4F50A7463250AF582E434B3
:100B650000F583E0FF900006E02407F582E43400F9
:100B7500F583EFF0900006E004F0050AE50AB41DE0
:100B8500D7900080E0900084F0E4900006F0D21B3E
:100B9500D222200A03020D33C20A201D03020D31A1
:100BA500900084E0D3943A503E7E007F1F7D007B09
:100BB500017A0079631206E1E4F50A900085E024E4
:100BC50086F582E43400F583E0FF7463250AF58237
:100BD500E43400F583EFF0900085E004F0050AE5C4
:100BE5000AB41DD7020C78900084E0D394574003D3
:100BF500020C87A3E0C3943A503E7E007F1F7D0020
:100C05007B017A0079631206E1E4F50A900085E03C
:100C15002486F582E43400F583E0FF7463250AF544
:100C250082E43400F583EFF0900085E004F0050AD6
:100C3500E50AB41DD7020CCB7E007F1F7D007B012A
:100C45007A0079631206E1E4F50A900085E02486CE
:100C5500F582E43400F583E0FF7463250AF582E448
:100C65003400F583EFF0900085E004F0050AE50A0D
:100C7500B41DD7900084E0900080F0A3E0547F027B
:100C85000D29900085E0C3943A504F7E007F1F7D6B
:100C9500007B017A0079631206E1E4F50A9000858C
:100CA500E02486F582E43400F583E0FF7463250AC9
:100CB500F582E43400F583EFF0900085E004F0055B
:100CC5000AE50AB41DD7900084E0900080F0A3E007
:100CD5004480F012187AD21D80547E007F1F7D005B
:100CE5007B017A0079631206E1E4F50A900085E05C
:100CF5002486F582E43400F583E0FF7463250AF564
:100D050082E43400F583EFF0900085E004F0050AF5
:100D1500E50AB41DD7900084E0900080F0A3E0546C
:100D25007FF04440F012187AC21D8002D21C302593
:100D350011C2257E007F5D7D007B017A0079061258
:100D450006E1202403020E75E49000F0F0A3F0F50F
:100D55000A900084E02404FFE433FEC3E50A9FEE15
:100D65006480F874809850147486250AF582E434FA
:100D750000F583E064686004050A80D57487250A58
:100D8500F9E43400A801FC7D017B017A0079E27E5B
:100D9500007F061206BDEF6034900084E0D3940A0C
:100DA500402B7487250AF9E43400FA7B0178E27C4C
:100DB500007D017E007F061204AB78EA7C007D0190
:100DC5007B017A0079E27E007F061204AB900084F5
:100DD500E0D3941D504D7E007F1F7D007B017A007E
:100DE50079631206E1E4F50A900084E0FFE50AC3A1
:100DF5009F501E7486250AF582E43400F583E0FED3
:100E05007463250AF582E43400F583EEF0050A8063
:100E1500D7900080EFF0A3E0547FF012187AC22437
:100E2500C21D227E007F1F7D007B017A007963123F
:100E350006E1E4F50A7486250AF582E43400F583B3
:100E4500E0FF7463250AF582E43400F583EFF09042
:100E55000085E004F0050AE50AB41DD9900084E098
:100E6500900080F0A3E04480F012187AC224D21DCD
:010E7500225A
:10007E000203C6E86480F8E933E83360110460F0E7
:10008E00ED33EC337009E8FCE9FDEAFEEBFF2204E8
:10009E0060DED3EB9FEA9EE99DE8C2E78CF0C2F7E3
:1000AE0095F0400CE8CCF8E9CDF9EACEFAEBCFFBAF
:1000BE0012039185D0F05804700320D5B3E8047074
:1000CE00075002B2D50203D092D5EC0460F7E4CC0F
:1000DE00C0E0C398F8603B94186008400DD0E0FB78
:1000EE000203A8E4FBFAC9FC8028E830E406E4C960
:1000FE00FBE4CAFCE830E305E4C9CACBFCE85407CC
:10010E006010F8C3E913F9EA13FAEB13FBEC13FCD6
:10011E00D8F130F52FC3E49CFCEF9BFFEE9AFEED79
:10012E0099FDD0E0FBEF4E4D4C701222DB03020323
:10013E00CDEC2CFCEF33FFEE33FEED33FDED30E76F
:10014E00EB0203A8EF2BFFEE3AFEED39FDD0E0FBFC
:10015E0050130BBB00030203D0ED13FDEE13FEEFA5
:08016E0013FFEC13FC0203A8CF
:10017600EC4D6011E8497017ED33EC3304600DE483
:10018600FCFFFEFD22E933E8330470F80203C612D1
:10019600039158046009E4CC2481500628500902D2
:1001A60003D02840030203CDC0E0EB4A7044B98077
:1001B60006D0E0FB0203BCEF4E701CBD8008EBFFCF
:1001C600EAFEE9FD80EBE98DF0A4FEE5F002025FB0
:1001D600E9CDF9EAFEEBFFEF89F0A4FCE5F0CE8964
:1001E600F0A42EFFE435F0CD89F0A42DFEE435F021
:1001F6008067EF4E7005BD80D780C3EF8BF0A4AC4F
:10020600F0EE8BF0A42CFCE435F0F8EF8AF0A42C89
:10021600E5F038FCE433CB8DF0A42CFCE5F03BF89C
:10022600EE8AF0A42CFCE5F038F8E433CF89F0A48C
:100236002CFCE5F038CF3400CE89F0A42FFFE5F092
:100246003EFEE433C98DF0A42EFEE5F039CD8AF0EA
:10025600A42FFFE5F03EFEE43DFD33D0E0FB500762
:100266000BBB000F0203D0EC2CFCEF33FFEE33FE8A
:06027600ED33FD0203A8B8
:10027C000203D0EC5D046005E8590470030203C668
:10028C00120391580460F6EC4860F2EC7004FDFE29
:10029C00FF22C860DB2481C85009C3986002500655
:1002AC000203CD9850CAF582E9294B4A7005AB82FE
:1002BC000203BC75F0007C1A7880C3EF9BEE9AEDBC
:1002CC0099400DC3EF9BFFEE9AFEED99FDE842F0CD
:1002DC00DC23ACF0D0E0FFD0E0FED0E0FDAB822020
:1002EC00E7101BEB60BAEC2CFCEF33FFEE33FEEDAA
:1002FC0033FD0203A8E803F830E705C0F075F00001
:10030C00EF2FFFEE33FEED33FD40B830E7C280AA8D
:10031C0075F020800E75F010800575F0087D007E5C
:10032C00007F003392D530D503120529EC334010F1
:10033C00EF33FFEE33FEED33FDEC33FCD5F0ED2265
:0E034C00E5F0247EA2D513CC92E7CDCEFF22A1
:10035A00EDD2E7CD33EC3392D524814006E4FFFE9B
:10036A00FDFC22FCE4CFCECDCC24E0501174FF80FA
:10037A00EDC3CC13CCCD13CDCE13CECF13CF047097
:07038A00F030D5DE02052969
:10039100E9D2E7C933E833F892D5EDD2E7CD33ECB2
:0703A10033FC5002B2D5222B
:1003A800EC30E7100FBF000C0EBE00080DBD0004B6
:1003B8000BEB6014A2D5EB13FCED92E7FD2274FF62
:1003C800FCFDFEFF22E480F8A2D574FF13FC7D80BB
:0303D800E480EFCF
:030000000214A146
:0C14A100787FE4F6D8FD7581240214E881
:1003DB00E709F608DFFA8046E709F208DFFA803E04
:1003EB0088828C83E709F0A3DFFA8032E309F608F1
:1003FB00DFFA8078E309F208DFFA807088828C8359
:10040B00E309F0A3DFFA806489828A83E0A3F6080C
:10041B00DFFA805889828A83E0A3F208DFFA804CE6
:10042B0080D280FA80C680D4806980F280338010BD
:10043B0080A680EA809A80A880DA80E280CA803326
:10044B0089828A83ECFAE493A3C8C582C8CCC5839E
:10045B00CCF0A3C8C582C8CCC583CCDFE9DEE7806E
:10046B000D89828A83E493A3F608DFF9ECFAA9F0ED
:10047B00EDFB2289828A83ECFAE0A3C8C582C8CC43
:10048B00C583CCF0A3C8C582C8CCC583CCDFEADE5C
:10049B00E880DB89828A83E493A3F208DFF980CCBE
:1004AB0088F0EF60010E4E60C388F0ED2402B404B7
:1004BB000050B9F582EB2402B4040050AF2323455E
:0604CB00822390042B7354
:1004D100BB010689828A83E0225002E722BBFE0229
:0904E100E32289828A83E493225C
:1004EA00BB010CE58229F582E5833AF583E02250C7
:1004FA0006E92582F8E622BBFE06E92582F8E22211
:0D050A00E58229F582E5833AF583E493222A
:10051700BB010689828A83F0225002F722BBFE01C3
:02052700F322BD
:0E052900C3E49FFFE49EFEE49DFDE49CFC22E3
:10053700E3F5F009E208B5F06BDFF58067E3F5F066
:1005470009E608B5F05EDFF5805A87F009E608B5D9
:10055700F052DFF6804E87F009E208B5F046DFF685
:10056700804288828C8387F009E0A3B5F036DFF6F6
:10057700803288828C8387F009E493A3B5F025DF66
:10058700F5802188828C83E3F5F009E0A3B5F014A8
:10059700DFF5801088828C83E3F5F009E493A3B537
:1005A700F002DFF4020666808780E9809080D480BD
:1005B7003E8015806E807E809D80B7808D80A38071
:1005C700518074803C02067289828A83ECFAE49334
:1005D700F5F0A3C8C582C8CCC583CCE493A3C8C52E
:1005E70082C8CCC583CCB5F076DFE3DEE1807089C5
:1005F700828A83E493F5F0A3E208B5F062DFF48022
:100607005E89828A83E0F5F0A3E608B5F051DFF54D
:10061700804D89828A83E0F5F0A3E208B5F040DFD8
:10062700F5803C89828A83E493F5F0A3E608B5F068
:100637002EDFF4802A8002805789828A83ECFAE4CD
:1006470093F5F0A3C8C582C8CCC583CCE0A3C8C5C1
:1006570082C8CCC583CCB5F006DFE4DEE280007F3C
:10066700FFB5F0020F2240027F012289828A83ECC4
:10067700FAE0F5F0A3C8C582C8CCC583CCE0A3C80F
:10068700C582C8CCC583CCB5F0D5DFE5DEE380CF26
:1006970089828A83ECFAE0F5F0A3C8C582C8CCC585
:1006A70083CCE493A3C8C582C8CCC583CCB5F0AFCF
:1006B700DFE4DEE280A988F0EF60010E4E60ABED6B
:1006C7002402B404005098F582EB2402B4040050CD
:0A06D7008E23234582239005AE73A5
:1006E100EF4E6012EF60010EEDBB010B89828A8330
:1006F100F0A3DFFCDEFA2289F05007F709DFFCA93D
:0C070100F022BBFEFCF309DFFCA9F02293
:1014AD0002070DE493A3F8E493A34003F68001F241
:1014BD0008DFF48029E493A3F85407240CC8C33340
:1014CD00C4540F4420C8834004F456800146F6DF0F
:1014DD00E4800B010204081020408090152DE47E5D
:1014ED00019360BCA3FF543F30E509541FFEE49304
:1014FD00A360010ECF54C025E060A840B8E493A3CB
:10150D00FAE493A3F8E493A3C8C582C8CAC583CAF5
:10151D00F0A3C8C582C8CAC583CADFE9DEE780BEAD
:0115AC00003E
:00000001FF
