:05000000021B0780FE59
:03000B00021A6373
:0D001300021FBD3029030214DC1219B322B4
:10002300021D26C2AF30DF04C2DFD21830D804C2AB
:06003300D8D217D2AF3253
:10003B0002002675E1C075E28075E9F875EAFFE408
:10004B00F580F590758921D28EC28F758CC1758A1A
:10005B0080C28DD28C7593807594A875B80275B4D7
:0B006B0012F5A875A901D2AFD2A9229E
:10007B000200030203C6E86480F8E933E833601139
:10008B000460F0ED33EC337009E8FCE9FDEAFEEBBC
:10009B00FF220460DED3EB9FEA9EE99DE8C2E78C6A
:1000AB00F0C2F795F0400CE8CCF8E9CDF9EACEFABE
:1000BB00EBCFFB12039185D0F05804700320D5B31E
:1000CB00E80470075002B2D50203D092D5EC04605D
:1000DB00F7E4CCC0E0C398F8603B94186008400D7F
:1000EB00D0E0FB0203A8E4FBFAC9FC8028E830E46B
:1000FB0006E4C9FBE4CAFCE830E305E4C9CACBFC5F
:10010B00E854076010F8C3E913F9EA13FAEB13FB91
:10011B00EC13FCD8F130F52FC3E49CFCEF9BFFEE06
:10012B009AFEED99FDD0E0FBEF4E4D4C701222DBA9
:10013B00030203CDEC2CFCEF33FFEE33FEED33FD6E
:10014B00ED30E7EB0203A8EF2BFFEE3AFEED39FDA6
:10015B00D0E0FB50130BBB00030203D0ED13FDEEFD
:10016B0013FEEF13FFEC13FC0203A8EC4D6011E838
:10017B00497017ED33EC3304600DE4FCFFFEFD22F8
:10018B00E933E8330470F80203C612039158046094
:10019B0009E4CC248150062850090203D0284003DF
:1001AB000203CDC0E0EB4A7044B98006D0E0FB02FD
:1001BB0003BCEF4E701CBD8008EBFFEAFEE9FD802F
:1001CB00EBE98DF0A4FEE5F002025FE9CDF9EAFE62
:1001DB00EBFFEF89F0A4FCE5F0CE89F0A42EFFE451
:1001EB0035F0CD89F0A42DFEE435F08067EF4E702D
:1001FB0005BD80D780C3EF8BF0A4ACF0EE8BF0A4E1
:10020B002CFCE435F0F8EF8AF0A42CE5F038FCE494
:10021B0033CB8DF0A42CFCE5F03BF8EE8AF0A42C4C
:10022B00FCE5F038F8E433CF89F0A42CFCE5F0388A
:10023B00CF3400CE89F0A42FFFE5F03EFEE433C9A6
:10024B008DF0A42EFEE5F039CD8AF0A42FFFE5F05A
:10025B003EFEE43DFD33D0E0FB50070BBB000F022D
:10026B0003D0EC2CFCEF33FFEE33FEED33FD02033A
:10027B00A80203D0EC5D046005E859047003020387
:10028B00C6120391580460F6EC4860F2EC7004FD62
:10029B00FEFF22C860DB2481C85009C3986002505E
:1002AB00060203CD9850CAF582E9294B4A7005AB7B
:1002BB00820203BC75F0007C1A7880C3EF9BEE9A28
:1002CB00ED99400DC3EF9BFFEE9AFEED99FDE842D1
:1002DB00F0DC23ACF0D0E0FFD0E0FED0E0FDAB8251
:1002EB0020E7101BEB60BAEC2CFCEF33FFEE33FE78
:1002FB00ED33FD0203A8E803F830E705C0F075F015
:10030B0000EF2FFFEE33FEED33FD40B830E7C28038
:10031B00AA75F020800E75F010800575F0087D0031
:10032B007E007F003392D530D5031206CBEC3340E1
:10033B0010EF33FFEE33FEED33FDEC33FCD5F0ED78
:10034B0022E5F0247EA2D513CC92E7CDCEFF22ED91
:10035B00D2E7CD33EC3392D524814006E4FFFEFD8A
:10036B00FC22FCE4CFCECDCC24E0501174FF80ED09
:10037B00C3CC13CCCD13CDCE13CECF13CF0470F093
:10038B0030D5DE0206CBE9D2E7C933E833F892D594
:10039B00EDD2E7CD33EC33FC5002B2D522EC30E793
:1003AB00100FBF000C0EBE00080DBD00040BEB6060
:1003BB0014A2D5EB13FCED92E7FD2274FFFCFDFEBE
:1003CB00FF22E480F8A2D574FF13FC7D80E480EF5C
:1003DB00F920E72824F950037907E4F42402FB18E9
:1003EB00DBFDE624FB5014E9600DE4F618E604F699
:1003FB00B40A08E4F6D9F57401F60A22C2D522ED47
:10040B0033EC3392D5FA602AB4FF33EDC2E77BFFAE
:10041B0060067A04792FE4227A04793820D5047A9D
:10042B00047933224E614E002B494E46002D494E26
:10043B004600E47A08F608DAFC7B00740722E8C071
:10044B00E0ECC0E0EDC0E0EEC0E0EFC0E0EA75F03C
:10045B0010A4CAABF075F04DA42BFBE435F0FCEA0D
:10046B002410FAEB34C5FBEC34D9FCEDC2E7FF7575
:10047B00F056A4F42411C5F0F434C58FF0A42AE58A
:10048B00F03BE43CF620E71412053DD0E0FFD0E052
:10049B00FED0E0FDD0E0FC12027F8014F4041205C4
:1004AB003DD0E0FFD0E0FED0E0FDD0E0FC120176C5
:1004BB00D0E0F8E6FAEDD2E7CD33EC332482FBE45F
:1004CB00C3CF33CFCE33CECD33CD33DBF37B0775F9
:1004DB00F00A846004F6081B0AE5F0F6088FF07446
:1004EB000AA4FFACF08EF0740AA42CFEACF0500101
:1004FB000C8DF0740AA42CFDE435F0F608DBDE74E9
:10050B0007223F8000004120000042C80000447ACF
:10051B000000461C400047C35000497424004B1890
:10052B0096804CBEBC205A0E1BCA6753C21C749DCE
:10053B00C5AEFB60065407601C232312056BEB54FE
:10054B00386009120557120566120176ECF8EDF9C1
:10055B00EEFAEFCB22EB12056680F1543803241C24
:10056B0090050DFE93FC0EEE93FD0EEE930ECE93C7
:10057B00FF22E709F608DFFA8046E709F208DFFAFF
:10058B00803E88828C83E709F0A3DFFA8032E3098F
:10059B00F608DFFA8078E309F208DFFA80708882C8
:1005AB008C83E309F0A3DFFA806489828A83E0A35A
:1005BB00F608DFFA805889828A83E0A3F208DFFA13
:1005CB00804C80D280FA80C680D4806980F28033E0
:1005DB00801080A680EA809A80A880DA80E280CAA8
:1005EB00803389828A83ECFAE493A3C8C582C8CC92
:1005FB00C583CCF0A3C8C582C8CCC583CCDFE9DEEC
:10060B00E7800D89828A83E493A3F608DFF9ECFA7D
:10061B00A9F0EDFB2289828A83ECFAE0A3C8C5829C
:10062B00C8CCC583CCF0A3C8C582C8CCC583CCDFEE
:10063B00EADEE880DB89828A83E493A3F208DFF9A0
:10064B0080CC88F0EF60010E4E60C388F0ED240281
:10065B00B4040050B9F582EB2402B4040050AF236C
:10066B00234582239005CD73BB010689828A83E0E3
:10067B00225002E722BBFE02E32289828A83E493A3
:10068B0022BB010CE58229F582E5833AF583E02252
:10069B005006E92582F8E622BBFE06E92582F8E240
:1006AB0022E58229F582E5833AF583E49322BB01A7
:1006BB000689828A83F0225002F722BBFE01F322C5
:1006CB00C3E49FFFE49EFEE49DFDE49CFC22FAE65E
:1006DB00FB0808E6F925F0F618E6CA3AF622D083AD
:1006EB00D082F8E4937012740193700DA3A393F866
:1006FB00740193F5828883E4737402936860EFA3AB
:10070B00A3A380DFE3F5F009E208B5F06BDFF5801A
:10071B0067E3F5F009E608B5F05EDFF5805A87F080
:10072B0009E608B5F052DFF6804E87F009E208B50E
:10073B00F046DFF6804288828C8387F009E0A3B510
:10074B00F036DFF6803288828C8387F009E493A33E
:10075B00B5F025DFF5802188828C83E3F5F009E085
:10076B00A3B5F014DFF5801088828C83E3F5F009D4
:10077B00E493A3B5F002DFF402083E808780E980A2
:10078B009080D4803E8015806E807E809D80B78067
:10079B008D80A380518074803C02084A89828A83B1
:1007AB00ECFAE493F5F0A3C8C582C8CCC583CCE4BE
:1007BB0093A3C8C582C8CCC583CCB5F076DFE3DE86
:1007CB00E1807089828A83E493F5F0A3E208B5F0A7
:1007DB0062DFF4805E89828A83E0F5F0A3E608B5D8
:1007EB00F051DFF5804D89828A83E0F5F0A3E208B2
:1007FB00B5F040DFF5803C89828A83E493F5F0A362
:10080B00E608B5F02EDFF4802A8002805789828AB1
:10081B0083ECFAE493F5F0A3C8C582C8CCC583CCAE
:10082B00E0A3C8C582C8CCC583CCB5F006DFE4DE37
:10083B00E280007FFFB5F0020F2240027F01228988
:10084B00828A83ECFAE0F5F0A3C8C582C8CCC583D5
:10085B00CCE0A3C8C582C8CCC583CCB5F0D5DFE549
:10086B00DEE380CF89828A83ECFAE0F5F0A3C8C57A
:10087B0082C8CCC583CCE493A3C8C582C8CCC5833E
:10088B00CCB5F0AFDFE4DEE280A988F0EF60010EBB
:10089B004E60ABED2402B404005098F582EB2402B9
:1008AB00B40400508E232345822390078673EF4EAA
:1008BB006012EF60010EEDBB010B89828A83F0A3FE
:1008CB00DFFCDEFA2289F05007F709DFFCA9F022E2
:1008DB00BBFEFCF309DFFCA9F022E53F242BF8E675
:1008EB00053F227828302002782BE475F0011206A0
:1008FB00D90206732019EB7F2ED2198018EF540FF3
:10090B002490D43440D4FF301D0BEF24BFB41A0015
:10091B0050032461FFE540600215400543E5437039
:10092B0002054230200D7828E475F0011206D9EF4C
:10093B000206B9021F937403D2208003E4C220F590
:10094B003F8B288A29892AE4F540F542F543E54097
:10095B0060077F2012092080F57541FFC21AC2196A
:10096B00C21BC21CC21EC21FC2211208EEFF700D99
:10097B003020057F00120931AF43AE4222B4255F10
:10098B00C2D5C21D1208EEFF24D0B40A00501A754E
:10099B00F00A784030D50508B6FF0106C6A426F646
:1009AB0020D5047002D21C80D924CFB41A00EF508A
:1009BB0004C2E5D21D020C1ED21A80C6D21980C009
:1009CB00D21B80BCD2D580BAD21E80B47F20120934
:1009DB0020201B077401B5400040F11208E5FF12FF
:1009EB000920020959D221D21F80951208E5FB126A
:1009FB0008E5FA1208E5F94A4B700679157A0D7B72
:100A0B00FF201B2EE540602A7E008E82758300122C
:100A1B00068C60060EEE654170F0C2D5EBC0E0EAC5
:100A2B00C0E0E9C0E0EE120C7ED0E0F9D0E0FAD0E5
:100A3B00E0FB120673FF60AAEBC0E0EAC0E0E9C07E
:100A4B00E0120920D0E02401F9D0E03400FAD0E024
:100A5B00FBE5410460DCD541D98087D21B80A21213
:100A6B000C6160F7E5417001041203DBA941600DD5
:100A7B00E541600914F541120D08EF60F3EA30E728
:100A8B0002F404C3995077EAF425410430E701E4FA
:100A9B0004F541800D120C6160C1EA05412541123C
:100AAB0003DBEA783EF630E701E4254104D5410447
:100ABB00201E0114120C7EE4C0E0120D08783EE6F5
:100ACB00601320E70714F6120908802204F6D0E021
:100ADB0014C0E07F00120908E54160071208FF15FA
:100AEB0041800B301E031208FFD0E0020959D0E001
:100AFB000480C5120C6160A0E541041203DB783E53
:100B0B00EAF6E541201E026001042404120C7E74F7
:100B1B00FF04C0E0120D08120908E541201E026017
:100B2B00031208FFD0E0B541E87F45120912783E69
:100B3B00E67F2B30E7047F2DF404C0E0120920D0B0
:100B4B00E075F00A84C0F0120909D0E0120909021D
:100B5B000959791080027908C21FC2218008D2D5A9
:100B6B00790A8004790AC2D5E541047002F541E4A3
:100B7B00FAFDFEFF1208E5FC7B08201A131208E5AC
:100B8B00FD7B1030190A1208E5FE1208E5FF7B20E9
:100B9B00EC3382D592D55013C3E43019069FFFE492
:100BAB009EFEE4201A039DFDE49CFCE4CBF8C21AE4
:100BBB00EC700CCFCECDCCE824F8F870F38017C3D3
:100BCB00EF33FFEE33FEED33FDEC33FCEB33FB99F0
:100BDB004002FB0FD8E9EB301A05F8D0E0C448B25D
:100BEB001AC0E00AEC4D4E4F78207B0070C2EAB57C
:100BFB00410040BCC0E0120C80D0F0D0E0201A04C1
:100C0B00C4C0E0C4B21AC0F0120909D0F0D5F0EBA1
:100C1B000209591206E909F6530B5D5809C74C092D
:100C2B00C3420B614F0B69440B694909DC430B6FE2
:100C3B00550AA0460AFE450A6A470D355009CB2DC9
:100C4B0009CF2E09F22B09D32309F0200D1E2A09F7
:100C5B008B48000009EAE541B4FF03754106120811
:100C6B00E5FC1208E5FD1208E5FE1208E5FF7837F2
:100C7B0002040A790AA2D5201C14301E09B91002ED
:100C8B000404B9080104A2D5201F02500104201B43
:100C9B0068921BB540005034C0E07F20301C197F98
:100CAB0030A21B721F721E500F120CD7C21BC21F19
:100CBB00C21EC2217F30800F301E03E9C0E0120933
:100CCB0020301E03D0E0F9D0E0B540CC301E177FAA
:100CDB0030B9100C1209207F58301D077F78800324
:100CEB00B90803120920301B057F2D0209207F2034
:100CFB002021F87F2B201FF322921B80CF7F00B483
:100D0B00070050052437F8E6FF22286E756C6C2916
:100D1B0000D21A1208E5301AF8C21A784030D50101
:100D2B0008F602098B2D504349581208E52403B4E9
:100D3B0005004001E4900D3093120911743A120929
:100D4B0011D21C754004020B5DC2AFE4F5B174FF08
:100D5B00900000F0A3F0900001E024FFF090000061
:100D6B00E034FFF0E07002A3E070EB74FF90000042
:100D7B00F0A3F0900001E024FFF0900000E034FFBE
:100D8B00F0E07002A3E070EB74FF900000F0A3F0B2
:100D9B00900001E024FFF0900000E034FFF0E070E1
:100DAB0002A3E070EB74FF900000F0A3F090000141
:100DBB00E024FFF0900000E034FFF0E07002A3E0CD
:100DCB0070EB12003EE4F50EC228D229D22A121D76
:100DDB0076121C13D286D287C227E49000F2F0A3BE
:100DEB00F09000F0F0A3F09000E804F0A374F4F09E
:100DFB00D2AF7BFF7A1C797D120947E4F5B1D39012
:100E0B0000F3E094589000F2E094024008C2AFE483
:100E1B00F0A3F080FED39000F1E094589000F0E046
:100E2B0094024008C2AFE4F0A3F080FE30270B120F
:100E3B00117B1216BF12001680C19000E8E0700201
:100E4B00A3E070B77BFF7A1C798D12094790008461
:100E5B007410F0C2ACC299C298E4F526900084E0FD
:100E6B00FFE526C39F500EE526901CB793FF121F7C
:100E7B0079052680E7D2ACC22BC22DE4900085F019
:100E8B00C22CF5B19000E804F0A374F4F0202D0F00
:100E9B009000E8E07002A3E060051216BF80EE2020
:100EAB002D03020F9DC22D74FF9000E8F0A3F0E418
:100EBB00F526900084E02404FFE433FEC3E5269F6F
:100ECB00EE6480F8748098501474862526F582E4BD
:100EDB003400F583E064686004052680D5748625AC
:100EEB0026F9E43400FA7B017D12121F168F27744A
:100EFB00982526F582E43400F583E065276003022C
:100F0B00114A748E2526F582E43400F583E0648162
:100F1B00600302114A9000E8F0A37464F0C286C229
:100F2B00879000E8E07002A3E070F69000E8E4F030
:100F3B00A37464F0D286D2879000E8E07002A3E03D
:100F4B0070F69000E8E4F0A37464F0C286C2879058
:100F5B0000E8E07002A3E070F69000E8E4F0A37400
:100F6B0064F0D286D2879000E8E07002A3E070F6BE
:100F7B00D227E49000F2F0A3F09000F0F0A3F0740D
:100F8B00FF9000E8F0A3F074922526F9E4340002F8
:100F9B0010E87BFF7A1C79A2120947900084740E2B
:100FAB00F0C2ACC299C298E4F526900084E0FFE54C
:100FBB0026C39F500EE526901CC793FF121F790581
:100FCB002680E7D2ACC22BC22DE4900085F0C22C58
:100FDB00F5B19000E804F0A374F4F0202D0F90000D
:100FEB00E8E07002A3E060051216BF80EE202D032F
:100FFB0002115FC22D74FF9000E8F0A3F0E4F52618
:10100B00900084E02404FFE433FEC3E5269FEE64E6
:10101B0080F8748098501474862526F582E4340089
:10102B00F583E064686004052680D574862526F96F
:10103B00E43400FA7B017D10121F168F277496255E
:10104B0026F582E43400F583E06527600302114A3C
:10105B00748E2526F582E43400F583E064936003F7
:10106B0002114A9000E8F0A37464F0C286C2879024
:10107B0000E8E07002A3E070F69000E8E4F0A374DF
:10108B0064F0D286D2879000E8E07002A3E070F69D
:10109B009000E8E4F0A37464F0C286C2879000E885
:1010AB00E07002A3E070F69000E8E4F0A37464F043
:1010BB00D286D2879000E8E07002A3E070F6D227C8
:1010CB00E49000F2F0A3F09000F0F0A3F074FF9026
:1010DB0000E8F0A3F074902526F9E43400FA7B01C4
:1010EB0078EA7C007D017E007F0612064D9000EAB7
:1010FB00E024CD9000E2F09000EBE024CD9000E3F3
:10110B00F09000ECE024CD9000E4F09000EDE024B2
:10111B00CD9000E5F09000EEE024CD9000E6F0904D
:10112B0000EFE024CD9000E7F078EA7C007D017BB6
:10113B00017A0079E27E007F0612064D020E06C28E
:10114B002DE4900085F0C22C9000E804F0A374F419
:10115B00F0020E069000E87401F0A374F4F0050E93
:10116B00E50ED394024003E4F50E121C13020E0697
:10117B00E5D9139286A2DB72DA9287300974C20921
:10118B00900081E030E72EE4F52874632528F58282
:10119B00E43400F583E0FF900006E02407F582E4D9
:1011AB003400F583EFF0900006E004F00528E52805
:1011BB00B41DD7803DE4F52874632528F582E4340B
:1011CB0000F583E0FF900006E02407F582E434008D
:1011DB00F583EFF0900006E004F00528E528B41D38
:1011EB00D7900080E0900084F0E4900006F0D224C9
:1011FB00D22B200A03021399C20A2026030213974B
:10120B00900084E0D3943A503E7E007F1F7D007B9C
:10121B00017A0079631208B9E4F528900085E0247F
:10122B0086F582E43400F583E0FF74632528F582AC
:10123B00E43400F583EFF0900085E004F00528E539
:10124B0028B41DD70212DE900084E0D394574003DC
:10125B000212EDA3E0C3943A503E7E007F1F7D0047
:10126B007B017A0079631208B9E4F528900085E0D8
:10127B002486F582E43400F583E0FF74632528F5BA
:10128B0082E43400F583EFF0900085E004F005284C
:10129B00E528B41DD70213317E007F1F7D007B0133
:1012AB007A0079631208B9E4F528900085E024866A
:1012BB00F582E43400F583E0FF74632528F582E4BE
:1012CB003400F583EFF0900085E004F00528E52865
:1012DB00B41DD7900084E0900080F0A3E0547F020F
:1012EB00138F900085E0C3943A504F7E007F1F7D93
:1012FB00007B017A0079631208B9E4F52890008528
:10130B00E02486F582E43400F583E0FF746325283E
:10131B00F582E43400F583EFF0900085E004F005EE
:10132B0028E528B41DD7900084E0900080F0A3E05E
:10133B004480F0121F38D22680547E007F1F7D0020
:10134B007B017A0079631208B9E4F528900085E0F7
:10135B002486F582E43400F583E0FF74632528F5D9
:10136B0082E43400F583EFF0900085E004F005286B
:10137B00E528B41DD7900084E0900080F0A3E054E2
:10138B007FF04440F0121F38C2268002D225302E47
:10139B0011C22E7E007F5D7D007B017A00790612E3
:1013AB0008B9202D030214DBE49000F0F0A3F0F554
:1013BB0028900084E02404FFE433FEC3E5289FEE6D
:1013CB006480F8748098501474862528F582E43470
:1013DB0000F583E064686004052880D574872528B0
:1013EB00F9E43400A801FC7D017B017A0079E27EEF
:1013FB00007F06120895EF6034900084E0D3940AC6
:10140B00402B74872528F9E43400FA7B0178E27CC1
:10141B00007D017E007F0612064D78EA7C007D017F
:10142B007B017A0079E27E007F0612064D900084E4
:10143B00E0D3941D504D7E007F1F7D007B017A0011
:10144B0079631208B9E4F528900084E0FFE528C31E
:10145B009F501E74862528F582E43400F583E0FE48
:10146B0074632528F582E43400F583EEF0052880BB
:10147B00D7900080EFF0A3E0547FF0121F38C22DFD
:10148B00C226227E007F1F7D007B017A00796312CA
:10149B0008B9E4F52874862528F582E43400F58331
:1014AB00E0FF74632528F582E43400F583EFF090B8
:1014BB000085E004F00528E528B41DD9900084E0F0
:1014CB00900080F0A3E04480F0121F38C22DD2268A
:1014DB0022E4F529F52AF52BF52CF52DF52E200E0A
:1014EB00030215CC201149301812C218C20DD211AB
:1014FB00C28B438804C213D2AA021698E5D930E0F6
:10150B0003021698C211121FAD121EC620D803304B
:10151B001704C2D8C21743D90120D803301704C20D
:10152B00D8C2179000047401F0A374C2F00216988D
:10153B00301315C213D208121E50E4F508121E8E7A
:10154B00900082EFF0121FAD30181AC218E508C3D5
:10155B0094085003021698900004E4F0A37450F022
:10156B00C20E021698E5D930E003021698200D033F
:10157B00021698E4F5288528DA75F004E508A42509
:10158B0028F582E435F0F583E5822463F582E58363
:10159B003400F583E0F5DB0528E528B404D805080D
:1015AB0020D803301704C2D8C21743D90120D8035F
:1015BB00301704C2D8C217C20DD20F121E5002161A
:1015CB0098900002E07002A3E0703AC20930150453
:1015DB00D2098019E50AC394204012900082E0F5ED
:1015EB002B121E8E8F2CE52BB52C02D209E4F50A9B
:1015FB00C215C210C212C211121FADC21674FF90D7
:10160B000002F0A3F030173520152E201107121E03
:10161B00EED2158024E50AC39420501DE4F52885ED
:10162B0028DA7463250AF582E43400F583E5DBF0F0
:10163B00050A0528E528B404E6C217803220121FDC
:10164B0030D91CD212201627D2169000027401F04A
:10165B00A374AEF0C215C211E4F50AC210801020BB
:10166B00100D30DA0A201107D2101218308F092012
:10167B00D91130120EC212201109D20CE4900000C5
:10168B00F0A3F0301407C214D211121FAD90000456
:10169B00E07002A3E0701C74FF900004F0A3F0E470
:1016AB00F508C211C213121FADC20DC20EC20FC27A
:1016BB0008D20A22C219202C030217AA9000E0E0DC
:1016CB007002A3E060343098F3E599A2D0309A0110
:1016DB00B34021900085E02486F582E43400F58345
:1016EB00E599F0900085E004F09000E0E4F0A3743D
:1016FB0014F08002D219C29880C230190302178AE3
:10170B00D22D900085E0900084F0E4A3F0F52890B2
:10171B000084E0FF2404FDE433FCE528C39DEC6466
:10172B0080F8748098501474862528F582E4340070
:10173B00F583E064686004052880D4748F2528F550
:10174B0082E43400F583E0F529240CFDE433FCD36B
:10175B00ED9F7480F86C98502674862528F9E43434
:10176B0000FA7B01E529240AFD121F16E52825291D
:10177B002490F582E43400F583E06F60138000C29F
:10178B002D7E007F5E7D007B017A0079841208B983
:10179B00C219C22C74FF9000E0F0A3F0D2AC22204F
:1017AB002B0302182FC2ACC299C298E4F528900003
:1017BB0084E02404FFE433FEC3E5289FEE6480F845
:1017CB00748098501474072528F582E43400F5834F
:1017DB00E064686004052880D574082528F9E43492
:1017EB0000A801FC7D017B017A0079E27E007F0677
:1017FB00120895EF7028F528900084E0FFE528C3C8
:10180B009F501474072528F582E43400F583E0FF1C
:10181B00121F79052880E1E49000F2F0A3F0D22E9C
:10182B00C22BD2AC22E4F52FF530F531FFFEF532A9
:10183B00F5337593807594A8439301E59320E0FBF2
:10184B0075DC1185DD3275DC1085DD33AC97E41268
:10185B0003267B337A3379D3783F120176C004C0E9
:10186B0005C006C007AC32E4120326A804A905AADA
:10187B0006AB07D007D006D005D004120081E4FBDD
:10188B00FA793C7842120176C004C005C006C00745
:10189B00C3E5339532FDE49400FCE4120321A80464
:1018AB00A905AA06AB07D007D006D005D0041202B3
:1018BB007FE4FBFA797C784212008512035AEF25FC
:1018CB0031F531EE3530F5305393BF052FE52F64ED
:1018DB0008600302184353937FE531AE307803CE93
:1018EB00C313CE13D8F9FFC374FF9FFF22300C1321
:1018FB00C3900001E0940A900000E094004004C201
:10190B000CD214300813C3900001E0950B9000002B
:10191B00E094004004C208D20D300F13C3900001B5
:10192B00E0950B900000E094004004C20FD20D90A4
:10193B000004E0FEA3E0FF4E6013EFF47002EEF440
:10194B00600BE024FFF0900004E034FFF090000205
:10195B00E0FEA3E0FF4E6013EFF47002EEF4600BB9
:10196B00E024FFF0900002E034FFF0900061E0FE15
:10197B00A3E0FF4E6013EFF47002EEF4600BE02473
:10198B00FFF0900061E034FFF09000E0E0FEA3E098
:10199B00FF4E6013EFF47002EEF4600BE024FFF0E7
:1019AB009000E0E034FFF022300E3FE5D920E02834
:1019BB00201825121EC620D803301704C2D8C21710
:1019CB0043D90120D803301704C2D8C217900004A2
:1019DB00E4F0A3745AF08054301851C218C20E9020
:1019EB000004E4F0A3740AF08042301715C21712FA
:1019FB001EEED209C212C21074FF900002F0A3F0C7
:101A0B00802020121030D90DD212900002E4F0A3E6
:101A1B007450F0800D20100A30DA07D210121830F3
:101A2B008F0920D902C21220DA02C210900002E004
:101A3B007002A3E0700B121D7674FF900002F0A3EE
:101A4B00F0900004E07002A3E0700CD20AC20E7496
:101A5B00FF900004F0A3F022C0E0C0F0C083C0826E
:101A6B00C0D075D000C000C001C002C003C004C00C
:101A7B0005C006C007C2AF758A80758CC190000186
:101A8B00E004F07006900000E004F01218F89000EB
:101A9B00E8E0FEA3E0FF4E6013EFF47002EEF4609B
:101AAB000BE024FFF09000E8E034FFF0050DE50DAE
:101ABB007002050CC394E8E50C94034022750C00EE
:101ACB00750D009000F3E004F070069000F2E00456
:101ADB00F09000F1E004F070069000F0E004F0D21A
:101AEB00AFD007D006D005D004D003D002D001D0A0
:101AFB0000D0D0D082D083D0F0D0E032787FE4F623
:101B0B00D8FD758143021B4E020D54E493A3F8E4F8
:101B1B0093A34003F68001F208DFF48029E493A33A
:101B2B00F85407240CC8C333C4540F4420C8834053
:101B3B0004F456800146F6DFE4800B010204081022
:101B4B00204080901B93E47E019360BCA3FF543F25
:101B5B0030E509541FFEE493A360010ECF54C0255A
:101B6B00E060A840B8E493A3FAE493A3F8E493A34A
:101B7B00C8C582C8CAC583CAF0A3C8C582C8CAC5AE
:101B8B0083CADFE9DEE780BE010E00C128C1A9C10F
:101B9B00AA4600E20000000000004600EA00000038
:101BAB00000000C1274200E8FFFF4200F2000042A4
:101BBB0000F00000C12BC12CC12EC12D4200000032
:101BCB0000C10EC109C10A010900C117C118C11317
:101BDB00C112C110C111C115C116010A00010800C3
:101BEB00C108C10FC10CC10BC10DC114010B0042C7
:101BFB000004FFFF420002FFFF020C0000C123C1E3
:101C0B0022C126C124C12500D2CDD2CC53870FE5EA
:101C1B000E70028026E50EB4010E75CDFF75CC98C3
:101C2B0075CBFF75CA98801FE50EB4020E75CDFFFC
:101C3B0075CCCC75CBFF75CACC800C75CDFF75CC34
:101C4B003075CBFF75CA30D2CAE4F59BF59AD29F9B
:101C5B00D29EC29DD29CD2ACC298C299FE7F5EFD31
:101C6B007B017A0079841208B974FF9000E0F0A32D
:101C7B00F0226675636B696E672068696768200D73
:101C8B000A00203634355F313939375F7368616B41
:101C9B006568616E642000203634355F3230303732
:101CAB005F7368616B6568616E642000FEFE689906
:101CBB00999999999968010265F3C116FEFE68AA74
:101CCB00AAAAAAAAAA681300DF1675DFA543D9042E
:101CDB0075D9E8E4FDFF121F5D7D1F7F01121F5DAB
:101CEB003028047D4380027D417F02121F5D121F4D
:101CFB00597D5C7F04121F5D7D807F05121F5DE4A3
:101D0B00FD7F06121F5D7D107F07121F5D7D0A7F11
:101D1B0008121F5DE4F5B275DF5A22C0E0C083C024
:101D2B0082C0D0C2AFC2AC309836202C31E599A21C
:101D3B00D0309A01B34025900085E4F0E02486F57D
:101D4B0082E43400F583E599F0900085E004F0908F
:101D5B0000E0E4F0A37414F0D22C8002D2ACC29851
:101D6B00D2AFD0D0D082D083D0E0327E007F5D7DE9
:101D7B00007B017A0079061208B974FF900061F0BC
:101D8B00A3F0C20EC218C217C20AC209C212C210F5
:101D9B00C213C20DC208C20FC215E4F50AC211F577
:101DAB0008C21674FF900004F0A3F0900002F0A399
:101DBB00F0121FAD2275DFA543D90475D9E87D80DC
:101DCB00E4FF121F5D7D1F7F01121F5D3028047D14
:101DDB004380027D417F02121F5D121F597D5C7F84
:101DEB0004121F5D7D067F0E121F5D7D907F0C120E
:101DFB001F5D7DB07F0D121F5D75DF5A2275DFA54C
:101E0B0043D90475D9887DC0E4FF121F5D7D047F23
:101E1B0001121F5D3028047D4380027D417F021239
:101E2B001F5D121F597D5C7F04121F5D7D067F0EA7
:101E3B00121F5D7D907F0C121F5D7DB07F0D121FF9
:101E4B005D75DF5A22E4900000F0A3F0302A1A30BF
:101E5B00080A758AC0758CE0750B1222300F23753A
:101E6B008A80758CC1750B0A2230080A758A8075B9
:101E7B008CF3750B0F22300F09758A40758CED753D
:101E8B000B09227B017A0079637F1F8B2F8A3089A4
:101E9B0031E4FEEFD3941F40027F1FE4FDEDC39F9F
:101EAB005016AB2F0531E531AA307002053014F90D
:101EBB001206732EFE0D80E5AF06227B017A0079A8
:101ECB00638B2F8A308931E4FF8FDAAB2F0531E535
:101EDB0031AA307002053014F9120673F5DB0FBF0F
:101EEB001FE7227B017A0079638B2F8A308931E4DB
:101EFB00FF8FDAAB2F0531E531AA307002053014B4
:101F0B00F9E5DB1206B90FBF1FE7228B2A8A2B8953
:101F1B002CE4FFFEEEC39D5013AB2AAA2BA92C8EEB
:101F2B008275830012068C2FFF0E80E82220D808C2
:101F3B00E5D920E00330DF06C2D8C2DFC322D20EC0
:101F4B0074FF900004F0A3F0C218C20AD3227D5C88
:101F5B007F038FDCE5DCB40112ED75F00B84C43329
:101F6B003354C0F5DDED25DDF5DD228DDD2274FF6B
:101F7B00FDFCEFA2D0929BF599209909ED1D700104
:101F8B001CED4C70F4C2992274FFFDFCEFA2D092B1
:101F9B009BF599209909ED1D70011CED4C70F4C255
:101FAB009922302909301103021E08021CD5121D7B
:0B1FBB00C022C2AFC2AAD213D2AF32C4
:00000001FF
